:100000000C9454010C9485010C9485010C94850189
:100010000C9485010C9485010C9485010C94850148
:100020000C9485010C9485010C9485010C94850138
:100030000C9485010C9485010C9485010C94850128
:100040000C9485010C9485010C9485010C94850118
:100050000C9485010C9485010C9485010C94CF08B7
:100060000C9485010C9443090C9419090C94850196
:100070000C9485010C9485010C9485010C948501E8
:100080000C9485010C9485010C9485010C948501D8
:100090000C9485010C9485010C9485010C947909CC
:1000A0000C9485010C9485010C9485010C948501B8
:1000B0000C9485010C9485010C9485010C948501A8
:1000C0000C9485010C9485010C9485010C94850198
:1000D0000C9485010C9485010C9485010C94850188
:1000E0000C9485010C94FB010C948F030C94D201A9
:1000F0000C94F5010C943C030C949D0A0C94DA01C9
:100100000C9403070C9408020C94E7010C949206DB
:100110000C9439030C9469060C940D020C949D0305
:100120000C9422040C94FF010C9478060C940902A0
:100130000C94C8010C94ED010C946C030C943103E5
:100140000C94CE010C9468060C94BF060C94EE0639
:100150000C94DD010C943E030C94F1010C94D60137
:100160000C94D5030C948B060C94E3010C94EB0FC8
:100170000C943D030C9435030C947B030C943F03C7
:100180000C94030200002100240027002A002D0007
:100190003000330001010000040107010A010000E2
:1001A0002200250028002B002E003100340002011F
:1001B0000000050108010B010000200023002600BB
:1001C00029002C002F00320000010000030106016D
:1001D00009010505050507050808080802020202CD
:1001E0000A0A0808040404040101010101010101D3
:1001F0000303030303030303040707070C0C0C0C9E
:100200000C0C0C0C02020202060606060606060686
:100210000B0B0B0B0B0B0B0B010210202008081013
:100220002040102040800201020108040201010266
:10023000040810204080804020100804020180043F
:10024000020180402010080402010804020101029A
:1002500004081020408001020408102040800000A3
:100260000A0B02090C0D0E08070304010000000030
:10027000000000000000000000000000000000007E
:10028000000000000000000000001211100000003B
:10029000000000000000000000000000000000005E
:1002A000000000009D0AEB0F11241FBECFEFD1E22A
:1002B000DEBFCDBF00E00CBF12E0A0E0B2E0E0EF97
:1002C000F6E200E00BBF02C007900D92A23CB1071E
:1002D000D9F724E0A2ECB2E001C01D92A23DB20722
:1002E000E1F711E0C3E5D1E000E006C02197010984
:1002F000802FFE010E943F11C235D10780E0080720
:10030000A9F70E945E0B0C9466130C94000096E013
:10031000899FD0011124A05CBB4F90967C936E9373
:100320005F9791E091969C939197E091AD04F09145
:10033000AE049091AC04992339F0309751F08111BB
:1003400008C080915C041994309719F05C968C91E8
:10035000FACF08958150823108F05AC0E82FF0E0BA
:100360008827EA54FE4F8F4F0C943F11D601DA01D3
:10037000C801CE01D2010802DD01E301E701ED0170
:10038000F101F501FB01FF010802030209020D0260
:10039000809180008F778093800008958091800005
:1003A0008F7DF9CF80918000877FF5CF84B58F77DF
:1003B00084BD089584B58F7DFBCF8091B0008F7789
:1003C0008093B00008958091B0008F7DF9CF809127
:1003D00090008F77809390000895809190008F7D9A
:1003E000F9CF80919000877FF5CF8091A0008F7723
:1003F0008093A00008958091A0008F7DF9CF809117
:10040000A000877FF5CF809120018F778093200116
:100410000895809120018F7DF9CF80912001877F01
:10042000F5CFCF93DF93282F30E0F901E25AFD4F4B
:100430008491F901E85EFD4FD491F901EE52FE4F2F
:10044000C491CC23A1F081110E94AA01EC2FF0E00D
:10045000EE0FFF1FE854FE4FA591B491EC91ED23F0
:1004600081E090E009F480E0DF91CF91089580E091
:1004700090E0FACF1F93CF93DF93282F30E0F9015C
:10048000E25AFD4F8491F901E85EFD4FD491F901E4
:10049000EE52FE4FC491CC23A9F0162F81110E9479
:1004A000AA01EC2FF0E0EE0FFF1FE256FE4FA591E0
:1004B000B4918FB7F894EC91111108C0D095DE2358
:1004C000DC938FBFDF91CF911F910895DE2BF8CF82
:1004D000CF93DF9390E0FC01E85EFD4F24918E52B4
:1004E0009E4FFC0184918823C9F090E0880F991FEA
:1004F000FC01EC57FE4FA591B491FC01E256FE4F72
:10050000C591D49161110DC09FB7F8948C9120953D
:1005100082238C938881282328839FBFDF91CF91EA
:100520000895623051F49FB7F8943C91822F8095E2
:1005300083238C93E8812E2BEFCF8FB7F894EC9127
:100540002E2B2C938FBFEACF3FB7F89480914303B3
:1005500090914403A0914503B091460326B5A89B12
:1005600005C02F3F19F00196A11DB11D3FBFBA2F45
:10057000A92F982F8827BC01CD01620F711D811D05
:10058000911D42E0660F771F881F991F4A95D1F78A
:1005900008952FB7F89460913F03709140038091C4
:1005A0004103909142032FBF08950F931F93CF9360
:1005B000DF93C82FD62F86E0C89FF0011124E05C9E
:1005C000FB4F11A2878D90A181309105F1F058F079
:1005D00082309105F1F1039709F440C0DF91CF918A
:1005E0001F910F9108956623C9F361E070E08C2F8D
:1005F0000E9487010E94C902609398047093990435
:1006000080939A0490939B04E9CF0E94C9020091C1
:1006100098041091990420919A0430919B04AB01A5
:10062000BC01401B510B620B730B8091AA0490918B
:10063000AB04B0E0A0E084179507A607B70748F41D
:1006400062E070E08C2FDF91CF911F910F910C949D
:10065000870163E070E0D111C1CFF4CF70E060E0BA
:10066000F1CF862F642F0C946802862F642F0C9490
:100670003A02862F0C941102089508950895AF92BE
:10068000BF92CF92DF92EF92FF920F931F93CF937F
:10069000DF936C017B018B01040F151FEB015E01E1
:1006A000AE18BF08C017D10759F06991D601ED9176
:1006B000FC910190F081E02DC6011995892B79F705
:1006C000C501DF91CF911F910F91FF90EF90DF90C7
:1006D000CF90BF90AF900895FC01538D448D252F8E
:1006E00030E0842F90E0821B930B541710F0CF96CC
:1006F000089501970895FC01918D828D981761F0FE
:10070000A28DAE0FBF2FB11D5D968C91928D9F5F14
:100710009F73928F90E008958FEF9FEF0895FC01F3
:10072000918D828D981731F0828DE80FF11D858DA6
:1007300090E008958FEF9FEF0895FC01918D228D39
:10074000892F90E0805C9F4F821B91098F739927BE
:10075000089587E993E00E949D0321E0892B09F425
:1007600020E0822F0895FC01A48DA80FB92FB11DA0
:10077000A35ABF4F2C91848D90E001968F739927D7
:10078000848FA689B7892C93A089B1898C918370B5
:1007900080648C93938D848D981306C00288F389AE
:1007A000E02D80818F7D80830895EF92FF920F93DB
:1007B0001F93CF93DF93EC0181E0888F9B8D8C8D0D
:1007C00098131AC0E889F989808185FF15C09FB701
:1007D000F894EE89FF896083E889F98980818370C4
:1007E000806480839FBF81E090E0DF91CF911F9173
:1007F0000F91FF90EF900895F62E0B8D10E00F5F94
:100800001F4F0F731127E02E8C8D8E110CC00FB669
:1008100007FCFACFE889F989808185FFF5CFCE0101
:100820000E94B303F1CFEB8DEC0FFD2FF11DE35AC6
:10083000FF4FF0829FB7F8940B8FEA89FB89808184
:100840008062CFCFCF93DF93EC01888D8823B9F0FE
:10085000AA89BB89E889F9898C9185FD03C08081CB
:1008600086FD0DC00FB607FCF7CF8C9185FFF2CF48
:10087000808185FFEDCFCE010E94B303E9CFDF91E8
:10088000CF91089580E090E0892B29F00E94A90380
:1008900081110E94000080E090E0892B49F080E007
:1008A00090E0892B29F00E94000081110E94000035
:1008B00080E090E0892B49F080E090E0892B29F0DE
:1008C0000E94000081110E94000080E090E0892BCE
:1008D00049F080E090E0892B29F00E94000081110E
:1008E0000C940000089520910503260F3327331F31
:1008F00021323105ECF420916D03FC0190E080E0A1
:10090000243069F082E00895A09105032191AC01A3
:100910004B515D4FA40FB52FB11D2C930196861737
:1009200098F380910503680F6093050380E00895B4
:1009300081E0089510926D0381E080936C03109222
:10094000470361E084E10E943A0261E085E10E9490
:100950003A02E9EBF0E080818E7F808380818D7F99
:10096000808388E48093B80085E48093BC00089578
:10097000CF93DF9391E09093E4028823B9F0C09184
:10098000B800D091BA008091BC008A7B8093BC00F3
:1009900060E084E10E943A0260E085E10E943A0250
:1009A0000E949A04D093BA00C093B800DF91CF910F
:1009B0000895CF92DF92EF92FF920F931F93CF9300
:1009C000DF93D091960381E0D13208F09CC0C091B2
:1009D00095030E94A4026B017C0180916D0381113B
:1009E0006CC082E080936D0381E080936C038FEF95
:1009F00080936B0310926A03D0936903A5E7B3E079
:100A0000E9E4F3E080E0D8138DC0109248038091B0
:100A10004803CC0FC82BC093480380914703813013
:100A200009F084C0109247030E94A4026B017C016C
:100A3000809148038093BB0080916F039091700375
:100A4000A0917103B0917203892B8A2B8B2BA1F09B
:100A50000E94A40200916F03109170032091710312
:100A6000309172036C197D098E099F0906171707CB
:100A70002807390708F442C08091BC0083FDD8CF15
:100A800085EC8093BC000E94A4026B017C018091E4
:100A90006D03823009F44CC080916B038F3F09F4E1
:100AA00069C080916B03803209F466C080916B034A
:100AB000803309F463C084E026C080916F03909175
:100AC0007003A0917103B0917203892B8A2B8B2B39
:100AD00009F483CF0E94A40200916F031091700368
:100AE00020917103309172036C197D098E099F0961
:100AF000061717072807390708F06FCF80916E0394
:100B00000E94B80485E0109274031092960310922C
:100B10007303DF91CF911F910F91FF90EF90DF90C2
:100B2000CF9008959D9191938F5F6DCF85EEA9CF62
:100B300080916F0390917003A0917103B091720343
:100B4000892B8A2B8B2B09F4A2CF0E94A40200913F
:100B50006F031091700320917103309172036C192F
:100B60007D098E099F09061717072807390708F01E
:100B70008ECFC4CF80E0C7CF82E0C5CF83E0C3CFA4
:100B80000F931F93CF93DF938C01EB01DC011B9636
:100B90008D919C9121E0209373032EE32093950384
:100BA0001092740310929603DC01ED91FC91019078
:100BB000F081E02D68811995F80183859485DC0129
:100BC000ED91FC910190F081E02D69811995DF9103
:100BD000CF911F910F910C94D904CF93DF931F9263
:100BE0001F92CDB7DEB790E899838A83BE016F5F0D
:100BF0007F4F81EC94E00E94C0050F900F90DF9131
:100C0000CF91089581E00E94ED058BE39FE101976C
:100C1000F1F70895CF93DF931F921F92CDB7DEB700
:100C2000611110C0806890E899838A83BE016F5F6C
:100C30007F4F81EC94E00E94C0050F900F90DF91F0
:100C4000CF910895806CEFCF1F93CF93DF93162F32
:100C5000C1ECD4E0AB85BC859C8121E0209373037B
:100C6000909395031092740310929603ED91FC916A
:100C700011970190F081E02D682FCD0119958B859A
:100C80009C85DC01ED91FC910190F081E02D612FBC
:100C90001995DF91CF911F910C94D9048091C504CF
:100CA0006FEF803359F486E00E9424066FEF87E0EF
:100CB0000E9424066FEF88E00C94240684E00E94D2
:100CC00024066FEF83E00E9424066FEF82E0F4CFEA
:100CD0000895E0912D0380912C03E81730F4F0E0A3
:100CE000EC53FD4F808190E008958FEF9FEF0895C2
:100CF00090912D0380912C032FEF3FEF981748F42C
:100D0000E92FF0E0EC53FD4F208130E09F5F90939E
:100D10002D03C901089580912C0390912D03891B07
:100D2000990B0895CF92DF92EF92FF920F931F934A
:100D3000CF93DF937C01CB018A012091730322239F
:100D400089F0EB016B01C40ED51ECC15DD0569F0F1
:100D50006991D701ED91FC910190F081E02DC701DF
:100D60001995F3CF642F0E947304C801DF91CF91CE
:100D70001F910F91FF90EF90DF90CF900895CF9348
:100D8000DF931F92CDB7DEB76983209173032223CF
:100D9000F9F020919603203258F021E030E0FC0178
:100DA0003383228390E080E00F90DF91CF9108950C
:100DB00080917403E82FF0E0EB58FC4F9981908309
:100DC0008F5F809374038093960381E090E0ECCF73
:100DD00061E0CE0101960E947304F7CFCF93DF93B9
:100DE0001F921F92CDB7DEB720E429836A83BE012C
:100DF0006F5F7F4F0E94C00581E090E00F900F90E1
:100E0000DF91CF91089590E080E00895FB0101907B
:100E10000020E9F73197AF01461B570BDC01ED913C
:100E2000FC910280F381E02D19948F929F92AF92F2
:100E3000BF92EF92FF920F931F93CF93DF93CDB7A3
:100E4000DEB7A1970FB6F894DEBF0FBECDBF7C0111
:100E5000FA01CB0119A2223008F42AE08E010F5DBD
:100E60001F4F822E912CB12CA12CBF01A501940102
:100E70000E940E11F901CA016A300CF5605DD801BB
:100E80006E938D01232B242B252B79F790E080E0A6
:100E9000109721F0BD01C7010E940607A1960FB669
:100EA000F894DEBF0FBECDBFDF91CF911F910F91A0
:100EB000FF90EF90BF90AF909F908F900895695CE6
:100EC000DECFCF93DF93BC0187E993E00E94060752
:100ED000EC016DE572E087E993E00E9406078C0F54
:100EE0009D1FDF91CF91089580910002843399F581
:100EF0000E94020660E080E00E940A0660E672E05E
:100F000081EC94E00E94060761E080E00E940A06FE
:100F10006FE672E081EC94E00E94060761E089E0F0
:100F20000E940A0669E772E081EC94E00E940607DD
:100F30001092C3021092C20280910002833209F023
:100F400066C08091C2029091C302009769F1019737
:100F5000B1F10C940206863379F70E94020660E034
:100F600080E00E940A0660E672E081EC94E00E9454
:100F7000060761E080E00E940A0660E772E081EC0B
:100F800094E00E94060761E088E00E940A0668E794
:100F900072E081EC94E00E94060781E090E090937B
:100FA000C3028093C202C8CF81E892E00E94610729
:100FB00081E090E09093390380933803CACF87E9AA
:100FC00092E00E94610782E090E090933903809361
:100FD000380360E080E00E940A060E94020681E079
:100FE0008093370380913A0390913B03A0913C0397
:100FF000B0913D03885E9340A109B109809332030B
:1010000090933303A0933403B0933503A2CF089594
:10101000FC0180819181009711F00C94E3110895F7
:101020000F931F93CF93DF93EC01888199810097F1
:1010300059F02A813B812617370730F081E0DF9194
:10104000CF911F910F9108958B016F5F7F4F0E9489
:101050006C12009759F0998388831B830A832C8133
:101060003D81232B59F7FC011082E8CF80E0E7CFC8
:10107000CF93DF93EC01198218821B821A821D82A2
:101080001C8270E060E00E94100828813981811183
:101090000FC02115310519F0C9010E94E311198211
:1010A00018821D821C821B821A82DF91CF910895C3
:1010B0001D821C826FE572E0C901DF91CF910C9413
:1010C0005F13EF92FF920F931F93CF93DF93EC0187
:1010D0007B01FB0101900020E9F731978F01061B8E
:1010E000170BB8010E94100828813981811113C0A3
:1010F0002115310519F0C9010E94E31119821882E6
:101100001D821C821B821A82DF91CF911F910F9149
:10111000FF90EF9008951D830C83B701C901DF9103
:10112000CF911F910F91FF90EF900C945F1385ED7D
:101130008093BC0080916F0390917003A091710324
:10114000B09172030796A11DB11D23E0B695A79536
:10115000979587952A95D1F72091BC0024FD03C06F
:1011600010926D03089540916F0350917003609148
:10117000710370917203452B462B472B69F300973F
:10118000A105B10541F02AE22A95F1F700C00197C7
:10119000A109B109E1CF80916E030C94B8041F92AC
:1011A0000F920FB60F9211242F933F938F939F931B
:1011B000AF93BF9380913F0390914003A09141036F
:1011C000B091420330913E0323E0230F2D3758F5B1
:1011D0000196A11DB11D20933E0380933F03909380
:1011E0004003A0934103B093420380914303909145
:1011F0004403A0914503B09146030196A11DB11D82
:101200008093430390934403A0934503B093460314
:10121000BF91AF919F918F913F912F910F900FBEF2
:101220000F901F90189526E8230F0296A11DB11D5F
:10123000D2CF1F920F920FB60F9211240BB60F92BE
:101240002F933F934F935F936F937F938F939F93CE
:10125000AF93BF93EF93FF9387E993E00E94B303AB
:10126000FF91EF91BF91AF919F918F917F916F917E
:101270005F914F913F912F910F900BBE0F900FBE3A
:101280000F901F9018951F920F920FB60F92112476
:101290000BB60F922F938F939F93EF93FF93E09151
:1012A000A703F091A8038081E091AD03F091AE0314
:1012B00082FD1DC090818091B0038F5F8F7320915C
:1012C000B103821741F0E091B003F0E0E956FC4F22
:1012D000958F8093B003FF91EF919F918F912F9104
:1012E0000F900BBE0F900FBE0F901F90189580812E
:1012F000F2CF1F920F920FB60F9211240BB60F92DE
:101300002F933F934F935F936F937F938F939F930D
:10131000AF93BF93EF93FF938091B900887F80369E
:1013200009F44DC008F040C0883209F4A9C028F57E
:10133000803109F49DC0C8F4882309F4FBC08830CB
:1013400009F496C0FF91EF91BF91AF919F918F915A
:101350007F916F915F914F913F912F910F900BBEB5
:101360000F900FBE0F901F901895883109F488C018
:10137000803241F780936B0314C0803409F49DC020
:1013800040F48033B9F38833E9F680936B0385EC3E
:10139000B0C0803509F485C0883509F496C088341A
:1013A00089F60E949708CECF883909F48CC038F5A9
:1013B000883729F050F4883611F0803719F683E029
:1013C00080936D031092270357C0883809F47BC0BF
:1013D000803919F0803809F0B5CF80912703803229
:1013E00008F071C0E091270381E08E0F80932703FE
:1013F0008091BB00F0E0E95FFC4F80833DC0803B03
:1014000039F0E0F4803A09F479C0883A09F09ACFCB
:1014100084E080936D031092060310920503E0911F
:101420002A03F0912B0319958091050381110FC0B8
:1014300081E0809305031092E50209C0803C09F425
:10144000A6CF883C09F4A3CF883B09F07BCFE0917D
:10145000060381E08E0F80930603F0E0EB51FD4F11
:1014600080818093BB00909106038091050329C081
:10147000809148038093BB0085EC8093BC0062CFD1
:1014800090916A0380916903981758F5E0916A0377
:1014900081E08E0F80936A03F0E0E75BFC4F808170
:1014A000E9CFE0916A0381E08E0F80936A03809117
:1014B000BB00F0E0E75BFC4F808390916A03809172
:1014C00069039817C8F285E8D8CFE0916A0381E0F4
:1014D0008E0F80936A038091BB00F0E0E75BFC4FC6
:1014E000808380916C0381115CCF81E080934703FE
:1014F00084EA8093BC0010926D0324CF85EC809326
:10150000BC0010926D0380912703803230F4E0918B
:101510002703F0E0E95FFC4F10826091270370E041
:10152000E0912803F091290387E093E01995109248
:10153000270308CF10926B0334CF10929A031092B6
:10154000990388EE93E0A0E0B0E080939B03909332
:101550009C03A0939D03B0939E0327E232E0309357
:1015600098032093970325EC30E03093A403209355
:10157000A30324EC30E03093A6032093A50320ECD2
:1015800030E03093A8032093A70321EC30E03093A0
:10159000AA032093A90322EC30E03093AC032093FC
:1015A000AB0326EC30E03093AE032093AD031092F2
:1015B000B0031092B1031092B2031092B3031092D1
:1015C0003704109236048093380490933904A09322
:1015D0003A04B0933B0489E392E0909335048093FE
:1015E00034041092C4041092C30485E592E09093F1
:1015F000C2048093C1041092C6041092C7041092D2
:10160000C8041092C9041092CA041092CB048BEB48
:1016100094E00E94380885EB94E00E9438088FEA35
:1016200094E00E94380810924204109246041092EE
:101630004504109247048BE492E090934104809318
:101640004004ECE5F4E01082148213821582369691
:1016500084E0E839F807B9F785E092E09093A304B5
:101660008093A20481E092E09093A5048093A40467
:1016700084E08093A6048093A70489E092E090938D
:10168000A1048093A0048AE090E09093A904809341
:10169000A80484EF91E09093AB048093AA04109285
:1016A000AE041092AD0410929C0410929D0410920E
:1016B0009E0410929F041092AC040895CF93DF9380
:1016C000CDB7DEB7A8970FB6F894DEBF0FBECDBF7B
:1016D000789484B5826084BD84B5816084BD85B50D
:1016E000826085BD85B5816085BD80916E00816019
:1016F00080936E00109281008091810082608093BF
:1017000081008091810081608093810080918000C0
:101710008160809380008091B10084608093B100EB
:101720008091B00081608093B000809191008260D0
:1017300080939100809191008160809391008091CD
:1017400090008160809390008091A10082608093DE
:10175000A1008091A10081608093A1008091A000F0
:1017600081608093A000809121018260809321019B
:10177000809121018160809321018091200181600D
:101780008093200180917A00846080937A00809118
:101790007A00826080937A0080917A0081608093E1
:1017A0007A0080917A00806880937A001092C1005C
:1017B000E091A703F091A80312E01083E091A30346
:1017C000F091A4031082E091A503F091A6038FECA1
:1017D00080831092AF03E091AB03F091AC0386E0FD
:1017E0008083E091A903F091AA03808180618083C6
:1017F000E091A903F091AA03808188608083E09141
:10180000A903F091AA03808180688083E091A903F5
:10181000F091AA0380818F7D808384E394E090938C
:10182000CD048093CC0410922D0310922C031092BF
:101830007403109296030E949A048CE393E09093B1
:101840002B0380932A038DE393E0909329038093E5
:1018500028038091C604982F98609093C604109333
:10186000CA041092CB04EBE3FDE03197F1F78862F4
:101870000E94ED058BE496E40197F1F78091C60490
:1018800080620E94ED0583E592E00197F1F7809177
:10189000C60480620E94ED058091C60480620E94A9
:1018A000ED0584E08093C7048CE00E94ED050E9462
:1018B00002061093C80486E00E94ED0581E0809343
:1018C000730310E310939503109274031092960320
:1018D0000E94D904811164C01093C50467E00E947E
:1018E00024068BE193E00197F1F765E184E00E9423
:1018F00024060E944E068091C704982F946090930E
:10190000C7048C600E94ED050E944E060E940206EC
:1019100060E080E00E940A060E947407BB24B39432
:1019200036E0232E49E0442E512C612C712C0E946C
:10193000C90260933A0370933B0380933C039093F6
:101940003D03B092AC040E94C90200919C04109126
:101950009D0420919E0430919F04AB01BC01401B6B
:10196000510B620B730B8091A8049091A904B0E015
:10197000A0E084179507A607B70708F02EC110E06E
:101980008091A6041817D0F4E091A204F091A3046A
:10199000E10FF11D62E080810E9468021F5FF0CFBD
:1019A00082E68093C50460E080E00E9424066FEF29
:1019B00088E00E94240660E281E099CFA12C80910A
:1019C000A704A81608F063C0EA2CF12CE091A40447
:1019D000F091A504EE0DFF1D61E080810E94680278
:1019E000E091A404F091A504EE0DFF1D60E080815C
:1019F0000E943A0281E090E0A0E0B0E00A2C04C02E
:101A0000880F991FAA1FBB1F0A94D2F74C016C01C3
:101A1000C094D094312C8091A604381608F5032D7B
:101A200010E0E091A204F091A304E00FF11F808187
:101A30000E9411020C5F1F4F000F111FF801E05CA4
:101A4000FB4F892B41F480819181882999299183C9
:101A500080833394E0CF808191818C219D21F7CFC9
:101A6000E091A404F091A504EE0DFF1D61E08081DA
:101A70000E943A028091A4049091A504E80EF91EF8
:101A800060E0F70180810E946802A39498CF90E4FF
:101A9000E92E94E0F92E8701F801878D90A1892B1A
:101AA00031F4148E8FEF9FEF968F858F11A20A5F0E
:101AB0001F4FECE7F4E0E017F10771F7D12C8091AC
:101AC000A604D81608F052C0C12C8D2C912C880C7D
:101AD000991CC401885B9B4F4C012091A704C2163E
:101AE00008F042C0F401608171810C2C02C076952F
:101AF00067950A94E2F7D29E900111242C0D311DB6
:101B0000E0E4F4E080E0458D568D2417350709F4B4
:101B1000F1C18F5F36968A30B1F760FF23C0E0E4F1
:101B2000F4E090E080E0448D411117C0E091A00402
:101B3000F091A104E20FF31F4081289EF001299E3D
:101B4000F00D1124E05CFB4F448F368F258F10A2DF
:101B5000178E61E00E94D50205C0019636968A3044
:101B6000910509F7C394B9CFD394A9CFD12CF7012C
:101B700081A18111D82EF6E0EF0EF11C0E151F0584
:101B8000B1F70E94C90260939C0470939D048093F6
:101B90009E0490939F04DD2001F1809161048823CD
:101BA000E1F080915F04909160040197B1F480911D
:101BB0005C0480930002811115C080913703882353
:101BC00049F080913803909139038130910509F1F2
:101BD000029721F10E944204AACE1092AC04109206
:101BE0000002EBCF80913803909139038130910549
:101BF00041F08230910551F0892BF9F60E9474076B
:101C0000DCCF8CEA92E00E946107D7CF89E792E0AF
:101C1000FACF8CEA92E00E946107DCCF8091360314
:101C20008111EDC080913A0390913B03A0913C0358
:101C3000B0913D03409132035091330360913403DE
:101C400070913503841B950BA60BB70B883E934010
:101C5000A105B10508F4BECF0E94020680913003B1
:101C60009091310304971CF0B0923603B3CF0E94D9
:101C7000C902611571058105910511F00E9492104C
:101C80000E9443101CA21BA21EA21DA218A61FA2E6
:101C9000A30192010E94DC102AE0AE014F5F5F4F6A
:101CA0000E949B10BE016F5F7F4FCE0183960E9402
:101CB00061088091AF049091B004009709F488C046
:101CC0006BA17CA16115710509F480C04091B1043C
:101CD0005091B2042FA138A54217530708F476C0DB
:101CE0000E945F138FA198A59093B4048093B304CE
:101CF00018A61FA2CE0183960E9408080091B30483
:101D00001091B404E090AF04F090B004E114F10439
:101D100009F101151105F1F08091BF049091C00403
:101D2000080F191FB8018BEB94E00E94100888235C
:101D300089F02091BB043091BC048091BF04909144
:101D4000C004B701820F931F0E945F131093C00459
:101D50000093BF04809130039091310301969093DA
:101D600031038093300360E080E00E940A064091D6
:101D7000B3045091B4046091AF047091B00481EC4D
:101D800094E00E943F034091BF045091C0046091D1
:101D9000BB047091BC0487E993E00E943F036DE5AA
:101DA00072E087E993E00E94060780913A039091E0
:101DB0003B03A0913C03B0913D0380933203909389
:101DC0003303A0933403B093350304CF0E94E3118F
:101DD0008BA19CA19093B0048093AF048DA19EA190
:101DE0009093B2048093B1048FA198A59093B4040A
:101DF0008093B3041CA21BA21EA21DA279CF8091C6
:101E00000002882309F4E6CE8332F1F18A32E1F14F
:101E100089831A820091B9041091BA040F5F1F4F91
:101E2000B80185EB94E00E941008882399F0209176
:101E3000B5043091B6048091B9049091BA04BE0102
:101E40006F5F7F4F820F931F0E945F131093BA043E
:101E50000093B90460E080E00E940A0666EB72E03D
:101E600081EC94E00E94060760E080E00E940A0690
:101E70004091B9045091BA046091B5047091B604D0
:101E800081EC94E00E943F0380910002833209F0CC
:101E9000A1CE60E080E00E940A0666EB72E081EC71
:101EA00094E00E9406072091B9043091BA04809111
:101EB000BF049091C00428173907B1F48091B5048C
:101EC0009091B6046091BB047091BC040097A1F09E
:101ED0006115710531F4232BE1F0FC01808190E064
:101EE00016C00E94561313C080912E0390912F03A9
:101EF000019714C061702ECE6115710551F0232B2E
:101F000041F0FB01808190E0919581959109892BA9
:101F100059F780912E0390912F03019690932F03F0
:101F200080932E0361E080E00E940A06C0902E0399
:101F3000D0902F030D2C000CEE08FF082AE0B7010B
:101F4000A601F7FE0DC06DE281EC94E00E94EE0662
:101F500044275527BA014C195D096E097F092AE00B
:101F600081EC94E00E941507109236036FE572E051
:101F70008BEB94E00E9461086FE572E085EB94E0E2
:101F80000E9461081092310310923003C0902E031A
:101F9000D0902F030D2C000CEE08FF082AE0B701AB
:101FA000A601F7FE0DC06DE287E993E00E94D5031C
:101FB00044275527BA014C195D096E097F092AE0AB
:101FC00087E993E00E9415076DE572E087E993E0E9
:101FD0000E940607FFCD8FEA94E00E94080885EB77
:101FE00094E00E9408088BEB94E00C9408088F9210
:101FF0009F92AF92BF92CF92DF92EF92FF92CF93D8
:10200000DF93EC01688179818A819B81611571057B
:102010008105910521F464E279ED8BE597E02DE1EE
:1020200033EF41E050E00E94DC1049015A019B016E
:10203000AC01A7EAB1E40E94FB106B017C01ACEE9D
:10204000B4EFA50194010E940911C60ED71EE81E27
:10205000F91EF7FE06C081E0C81AD108E10880E841
:10206000F80AC882D982EA82FB82C701B6019F774B
:10207000DF91CF91FF90EF90DF90CF90BF90AF9026
:102080009F908F9008958F929F92AF92BF92CF9220
:10209000DF92EF92FF926091190270911A02809183
:1020A0001B0290911C02611571058105910521F4B7
:1020B00064E279ED8BE597E02DE133EF41E050E00C
:1020C0000E94DC1049015A019B01AC01A7EAB1E46E
:1020D0000E94FB106B017C01ACEEB4EFA5019401F2
:1020E0000E940911C60ED71EE81EF91EF7FE06C093
:1020F00081E0C81AD108E10880E8F80AC092190204
:10210000D0921A02E0921B02F0921C02C701B601A3
:102110009F77FF90EF90DF90CF90BF90AF909F9010
:102120008F9008956093190270931A0280931B0296
:1021300090931C020895BB272A3051F4992342F44E
:10214000BDE290958095709561957F4F8F4F9F4F21
:102150000C94AB10BB27FA01A62F621771058105FD
:102160009105330B30FB66F0AA27660F771F881F97
:10217000991FAA1FA21710F0A21B63953850A9F748
:10218000A05DAA3308F0A95DA19336F7B111B19310
:102190001082CA010C94CC10DC01FC01672F7191F4
:1021A0007723E1F7329704C07C916D93708362913D
:1021B000AE17BF07C8F30895052E97FB1EF40094D1
:1021C0000E94F31057FD07D00E940E1107FC03D0A8
:1021D0004EF40C94F31050954095309521953F4F57
:1021E0004F4F5F4F089590958095709561957F4F03
:1021F0008F4F9F4F08950E943011A59F900DB49F5F
:10220000900DA49F800D911D11240895B7FF0C948B
:10221000FB100E94FB10821B930B0895A1E21A2E63
:10222000AA1BBB1BFD010DC0AA1FBB1FEE1FFF1F7A
:10223000A217B307E407F50720F0A21BB30BE40BCA
:10224000F50B661F771F881F991F1A9469F7609511
:102250007095809590959B01AC01BD01CF010895CB
:10226000A29FB001B39FC001A39F700D811D1124D7
:10227000911DB29F700D811D1124911D0895EE0FC7
:10228000FF1F881F8BBF0790F691E02D19940F93C5
:102290001F93CF93DF938230910510F482E090E09A
:1022A000E091D004F091D10430E020E0B0E0A0E073
:1022B000309799F42115310509F44AC0281B390BD0
:1022C00024303105D8F58A819B816115710589F12A
:1022D000FB0193838283FE0111C040815181028101
:1022E000138148175907E0F04817590799F41097D8
:1022F00061F012960C93129713961C933296CF01AD
:10230000DF91CF911F910F9108950093D004109306
:10231000D104F4CF2115310551F04217530738F09D
:10232000A901DB019A01BD01DF01F801C1CFEF0175
:10233000F9CF9093D1048093D004CDCFFE01E20F6A
:10234000F31F819391932250310939832883D7CF8A
:102350002091CE043091CF04232B41F420911F0211
:10236000309120023093CF042093CE0420911D029F
:1023700030911E022115310541F42DB73EB7409131
:10238000210250912202241B350BE091CE04F091E2
:10239000CF04E217F307A0F42E1B3F0B28173907D1
:1023A00078F0AC014E5F5F4F2417350748F04E0FB1
:1023B0005F1F5093CF044093CE04819391939FCF9E
:1023C000F0E0E0E09CCFCF93DF930097E9F0FC01D1
:1023D000329713821282A091D004B091D104ED0102
:1023E00030E020E01097A1F420813181820F931F0B
:1023F0002091CE043091CF042817390709F061C02D
:10240000F093CF04E093CE04DF91CF910895EA01D9
:10241000CE17DF07E8F54A815B819E014115510522
:10242000B1F7E901FB83EA8349915991C40FD51FA4
:10243000EC17FD0761F4808191810296840F951F4E
:10244000E90199838883828193819B838A83F0E069
:10245000E0E012968D919C9113970097B9F52D911C
:102460003C911197CD010296820F931F2091CE04CB
:102470003091CF042817390739F6309751F510926B
:10248000D1041092D004B093CF04A093CE04BCCF5B
:10249000D383C28340815181840F951FC817D90708
:1024A00061F44E5F5F4F88819981480F591F5183B6
:1024B00040838A819B81938382832115310509F0B2
:1024C000B0CFF093D104E093D0049ECFFD01DC01A6
:1024D000C0CF13821282D7CF4F925F926F927F92BA
:1024E0008F929F92AF92BF92CF92DF92EF92FF9224
:1024F0000F931F93CF93DF938C01009799F4CB0137
:10250000DF91CF911F910F91FF90EF90DF90CF90CF
:10251000BF90AF909F908F907F906F905F904F9003
:102520000C944711FC01E60FF71F9C012250310962
:10253000E217F30708F4AEC0D901CD91DC911197F1
:10254000C617D70720F1C530D10578F0CE01049722
:102550008617970750F0C61BD70B2297C193D193CC
:102560006D937C93CF010E94E311C801DF91CF915D
:102570001F910F91FF90EF90DF90CF90BF90AF90A1
:102580009F908F907F906F905F904F9008955B0128
:10259000AC1ABD0A4C018C0E9D1EA091D004B091C6
:1025A000D104512C412CF12CE12C109731F5809164
:1025B000CE049091CF048815990509F05CC04616A9
:1025C000570608F058C080911D0290911E02009796
:1025D00041F48DB79EB74091210250912202841B95
:1025E000950BE817F90708F055C0F093CF04E09376
:1025F000CE04F90171836083B8CF8D919C911197BE
:1026000012966C90129713967C901397A815B905A3
:1026100059F56C0142E0C40ED11CCA14DB0420F150
:10262000AC014A195B09DA011296159780F06282B3
:10263000738251834083D9016D937C93E114F1043B
:1026400071F0D7011396FC93EE9312978ECF2296DA
:102650008C0F9D1FF90191838083F301EFCFF093DD
:10266000D104E093D00481CF4816590608F42C0118
:102670007D01D3019ACFCB010E9447117C010097C5
:1026800049F0AE01B8010E944D13C8010E94E31148
:1026900087016BCF10E000E068CFFB01DC0102C0D6
:1026A00001900D9241505040D8F70895FB01DC0194
:1026B0008D91019080190110D9F3990B0895FB01B8
:1026C000DC0101900D920020E1F7089511E0C3E5CF
:1026D000D1E000E006C0802FFE010E943F1121964C
:1026E000011DC435D10780E00807A9F7F894FFCF92
:1026F0003405040302090807063132334134353604
:1027000042373839432A302344010000000000D208
:1027100004800000000000D5033F036C0322049DE9
:10272000037B038F0300000000BF069206030768C7
:10273000068B067806690600000000310335033970
:102740000300000000EE063F0303073E030D0A00EE
:10275000456C204368656368756A7565676F003E00
:1027600043616C63756C6F003E4D656D6F7269619E
:102770000043C3A16C63756C6F2053656C65636324
:10278000696F6E61646F004D656D6F726961205392
:10279000656C656363696F6E61646F00456C2043AF
:1027A00068656368750020202020202020202020DC
:0227B000200007
:00000001FF
