:100000000C9455010C9486010C9486010C94860185
:100010000C9486010C9486010C9486010C94860144
:100020000C9486010C9486010C9486010C94860134
:100030000C9486010C942A0A0C9486010C94860177
:100040000C9486010C9486010C9486010C94860114
:100050000C9486010C9486010C9486010C94E009A2
:100060000C9486010C94F30A0C94C90A0C94860132
:100070000C9486010C9486010C9486010C948601E4
:100080000C9486010C9486010C9486010C948601D4
:100090000C9486010C9486010C9486010C94290B17
:1000A0000C9486010C9486010C9486010C948601B4
:1000B0000C9486010C9486010C9486010C948601A4
:1000C0000C9486010C9486010C9486010C94860194
:1000D0000C9486010C9486010C9486010C94860184
:1000E0000C9486010C9409020C943A030C943F037F
:1000F0000C949E030C9493060C9490030C94F601BC
:100100000C94DB010C9469060C948C060C94D301BE
:100110000C94F2130C9423040C94CF010C947906E4
:100120000C94E8010C946D030C94F2010C94000201
:100130000C94C9010C940E020C9436030C94C00666
:100140000C94D7010C94EE010C9440030C946A06B5
:100150000C9404020C943E030C9404070C94D603F4
:100160000C947C030C940A020C94DE010C943D0365
:100170000C944D0C0C9432030C94FC010C94EF067F
:100180000C94E4010200002100240027002A002D25
:10019000003000330001010000040107010A0100E2
:1001A000002200250028002B002E00310034000220
:1001B000010000050108010B0100002000230026BA
:1001C0000029002C002F003200000100000301066E
:1001D00001090105050505070508080808020202CE
:1001E000020A0A08080404040401010101010101D2
:1001F000010303030303030303040707070C0C0CA9
:100200000C0C0C0C0C020202020606060606060680
:10021000060B0B0B0B0B0B0B0B010210202008081D
:100220001020401020408002010201080402010158
:100230000204081020408080402010080402018041
:100240000402018040201008040201080402010198
:1002500002040810204080010204081020408000A1
:10026000000A0B02090C0D0E080703040100000030
:10027000000000000000000000000000000000007E
:10028000000000000000000000000012111000003B
:10029000000000000000000000000000000000005E
:1002A0000000000000004D0CF21311241FBECFEF20
:1002B000D1E2DEBFCDBF00E00CBF12E0A0E0B2E0B3
:1002C000E8E4FFE200E00BBF02C007900D92A63EFB
:1002D000B107D9F725E0A6EEB2E001C01D92AC311E
:1002E000B207E1F711E0C4E5D1E000E006C02197D4
:1002F0000109802FFE010E946B15C335D10780E0F4
:100300000807A9F70E940E0D0C9492170C94000098
:1003100096E0899FD0011124A657BB4F90967C93FD
:100320006E935F9791E091969C939197E091F7047B
:10033000F091F8049091F604992339F0309751F038
:10034000811108C08091A6041994309719F05C9629
:100350008C91FACF08958150823108F05AC0E82F6D
:10036000F0E08827E954FE4F8F4F0C946B15D701AE
:10037000DB01C901CF01D3010902DE01E401E8017B
:10038000EE01F201F601FC010002090204020A0278
:100390000E02809180008F77809380000895809175
:1003A00080008F7DF9CF80918000877FF5CF84B565
:1003B0008F7784BD089584B58F7DFBCF8091B00089
:1003C0008F778093B00008958091B0008F7DF9CF32
:1003D000809190008F778093900008958091900095
:1003E0008F7DF9CF80919000877FF5CF8091A0001D
:1003F0008F778093A00008958091A0008F7DF9CF22
:100400008091A000877FF5CF809120018F77809326
:1004100020010895809120018F7DF9CF80912001E6
:10042000877FF5CFCF93DF93282F30E0F901E15A92
:10043000FD4F8491F901E75EFD4FD491F901ED5232
:10044000FE4FC491CC23A1F081110E94AB01EC2F8F
:10045000F0E0EE0FFF1FE754FE4FA591B491EC9131
:10046000ED2381E090E009F480E0DF91CF910895E1
:1004700080E090E0FACF1F93CF93DF93282F30E0F6
:10048000F901E15AFD4F8491F901E75EFD4FD491E6
:10049000F901ED52FE4FC491CC23A9F0162F811122
:1004A0000E94AB01EC2FF0E0EE0FFF1FE156FE4F74
:1004B000A591B4918FB7F894EC91111108C0D09523
:1004C000DE23DC938FBFDF91CF911F910895DE2B48
:1004D000F8CFCF93DF9390E0FC01E75EFD4F2491CE
:1004E0008D529E4FFC0184918823C9F090E0880FC3
:1004F000991FFC01EB57FE4FA591B491FC01E15609
:10050000FE4FC591D49161110DC09FB7F8948C91A5
:10051000209582238C938881282328839FBFDF9195
:10052000CF910895623051F49FB7F8943C91822F97
:10053000809583238C93E8812E2BEFCF8FB7F8948F
:10054000EC912E2B2C938FBFEACF3FB7F89480917C
:100550008D0390918E03A0918F03B091900326B5E7
:10056000A89B05C02F3F19F00196A11DB11D3FBFEB
:10057000BA2FA92F982F8827BC01CD01620F711DBA
:10058000811D911D42E0660F771F881F991F4A95B4
:10059000D1F708952FB7F8946091890370918A0379
:1005A00080918B0390918C032FBF08950F931F931D
:1005B000CF93DF93C82FD62F86E0C89FF001112478
:1005C000E657FB4F11A2878D90A181309105F1F084
:1005D00058F082309105F1F1039709F440C0DF91A2
:1005E000CF911F910F9108956623C9F361E070E0E8
:1005F0008C2F0E9488010E94CA026093E2047093CB
:10060000E3048093E4049093E504E9CF0E94CA02D6
:100610000091E2041091E3042091E4043091E50498
:10062000AB01BC01401B510B620B730B8091F404B6
:100630009091F504B0E0A0E084179507A607B707EE
:1006400048F462E070E08C2FDF91CF911F910F9101
:100650000C94880163E070E0D111C1CFF4CF70E059
:1006600060E0F1CF862F642F0C946902862F642FEF
:100670000C943B02862F0C9412020895089508955D
:10068000AF92BF92CF92DF92EF92FF920F931F93A0
:10069000CF93DF936C017B018B01040F151FEB01DE
:1006A0005E01AE18BF08C017D10759F06991D60195
:1006B000ED91FC910190F081E02DC6011995892BF7
:1006C00079F7C501DF91CF911F910F91FF90EF90C6
:1006D000DF90CF90BF90AF900895FC01538D448D73
:1006E000252F30E0842F90E0821B930B541710F0DD
:1006F000CF96089501970895FC01918D828D9817EA
:1007000061F0A28DAE0FBF2FB11D5D968C91928DC1
:100710009F5F9F73928F90E008958FEF9FEF0895F2
:10072000FC01918D828D981731F0828DE80FF11DBB
:10073000858D90E008958FEF9FEF0895FC01918DD6
:10074000228D892F90E0805C9F4F821B91098F73CF
:100750009927089581EE93E00E949E0321E0892B62
:1007600009F420E0822F0895FC01A48DA80FB92F71
:10077000B11DA35ABF4F2C91848D90E001968F73C9
:100780009927848FA689B7892C93A089B1898C91E8
:10079000837080648C93938D848D981306C0028837
:1007A000F389E02D80818F7D80830895EF92FF9201
:1007B0000F931F93CF93DF93EC0181E0888F9B8D84
:1007C0008C8D98131AC0E889F989808185FF15C03E
:1007D0009FB7F894EE89FF896083E889F989808161
:1007E0008370806480839FBF81E090E0DF91CF9130
:1007F0001F910F91FF90EF900895F62E0B8D10E052
:100800000F5F1F4F0F731127E02E8C8D8E110CC0C0
:100810000FB607FCFACFE889F989808185FFF5CF0B
:10082000CE010E94B403F1CFEB8DEC0FFD2FF11D33
:10083000E35AFF4FF0829FB7F8940B8FEA89FB8948
:1008400080818062CFCFCF93DF93EC01888D8823A6
:10085000B9F0AA89BB89E889F9898C9185FD03C023
:10086000808186FD0DC00FB607FCF7CF8C9185FF08
:10087000F2CF808185FFEDCFCE010E94B403E9CF96
:10088000DF91CF91089580E090E0892B29F00E94BC
:10089000AA0381110E94000080E090E0892B49F0BA
:1008A00080E090E0892B29F00E94000081110E94D5
:1008B000000080E090E0892B49F080E090E0892BF7
:1008C00029F00E94000081110E94000080E090E069
:1008D000892B49F080E090E0892B29F00E940000EC
:1008E00081110C940000089520912903260F3327CD
:1008F000331F21323105ECF42091B703FC0190E065
:1009000080E0243069F082E00895A09129032191CC
:10091000AC01475F5C4FA40FB52FB11D2C9301961E
:10092000861798F380912903680F6093290380E06C
:10093000089581E008951092B70381E08093B60393
:100940001092910361E084E10E943B0261E085E145
:100950000E943B02E9EBF0E080818E7F8083808102
:100960008D7F808388E48093B80085E48093BC0009
:100970000895CF93DF9391E0909308038823B9F013
:10098000C091B800D091BA008091BC008A7B80935E
:10099000BC0060E084E10E943B0260E085E10E94CF
:1009A0003B020E949B04D093BA00C093B800DF9131
:1009B000CF910895CF92DF92EF92FF920F931F9302
:1009C000CF93DF93D091E00381E0D13208F09CC057
:1009D000C091DF030E94A5026B017C018091B703E7
:1009E00081116CC082E08093B70381E08093B603ED
:1009F0008FEF8093B5031092B403D093B303AFEBA2
:100A0000B3E0E3E9F3E080E0D8138DC010929203E5
:100A100080919203CC0FC82BC093920380919103D5
:100A2000813009F084C0109291030E94A5026B01ED
:100A30007C01809192038093BB008091B9039091D7
:100A4000BA03A091BB03B091BC03892B8A2B8B2BDB
:100A5000A1F00E94A5020091B9031091BA03209160
:100A6000BB033091BC036C197D098E099F090617E1
:100A700017072807390708F442C08091BC0083FD9E
:100A8000D8CF85EC8093BC000E94A5026B017C014D
:100A90008091B703823009F44CC08091B5038F3F39
:100AA00009F469C08091B503803209F466C0809171
:100AB000B503803309F463C084E026C08091B90394
:100AC0009091BA03A091BB03B091BC03892B8A2BF0
:100AD0008B2B09F483CF0E94A5020091B9031091DA
:100AE000BA032091BB033091BC036C197D098E09B8
:100AF0009F09061717072807390708F06FCF80915D
:100B0000B8030E94B90485E01092BE031092E0037E
:100B10001092BD03DF91CF911F910F91FF90EF9045
:100B2000DF90CF9008959D9191938F5F6DCF85EE6B
:100B3000A9CF8091B9039091BA03A091BB03B09162
:100B4000BC03892B8A2B8B2B09F4A2CF0E94A50210
:100B50000091B9031091BA032091BB033091BC03FB
:100B60006C197D098E099F09061717072807390791
:100B700008F08ECFC4CF80E0C7CF82E0C5CF83E03E
:100B8000C3CF0F931F93CF93DF938C01EB01DC0155
:100B90001B968D919C9121E02093BD032EE3209321
:100BA000DF031092BE031092E003DC01ED91FC9193
:100BB0000190F081E02D68811995F8018385948575
:100BC000DC01ED91FC910190F081E02D6981199596
:100BD000DF91CF911F910F910C94DA04CF93DF93A3
:100BE0001F921F92CDB7DEB790E899838A83BE012A
:100BF0006F5F7F4F8BE095E00E94C1050F900F90D3
:100C0000DF91CF91089581E00E94EE058BE39FE193
:100C10000197F1F70895CF93DF931F921F92CDB7FD
:100C2000DEB7611110C0806890E899838A83BE01A5
:100C30006F5F7F4F8BE095E00E94C1050F900F9092
:100C4000DF91CF910895806CEFCF1F93CF93DF9307
:100C5000162FCBE0D5E0AB85BC859C8121E02093AD
:100C6000BD039093DF031092BE031092E003ED9159
:100C7000FC9111970190F081E02D682FCD0119951D
:100C80008B859C85DC01ED91FC910190F081E02D3C
:100C9000612F1995DF91CF911F910C94DA04809107
:100CA0000F056FEF803359F486E00E9425066FEF41
:100CB00087E00E9425066FEF88E00C94250684E00B
:100CC0000E9425066FEF83E00E9425066FEF82E009
:100CD000F4CF0895E091510380915003E81730F468
:100CE000F0E0E851FD4F808190E008958FEF9FEF95
:100CF000089590915103809150032FEF3FEF981783
:100D000048F4E92FF0E0E851FD4F208130E09F5F8B
:100D100090935103C901089580915003909151031C
:100D2000891B990B0895CF92DF92EF92FF920F9358
:100D30001F93CF93DF937C01CB018A012091BD03E8
:100D4000222389F0EB016B01C40ED51ECC15DD0505
:100D500069F06991D701ED91FC910190F081E02D4E
:100D6000C7011995F3CF642F0E947404C801DF9165
:100D7000CF911F910F91FF90EF90DF90CF9008954A
:100D8000CF93DF931F92CDB7DEB769832091BD0368
:100D90002223F9F02091E003203258F021E030E0E6
:100DA000FC013383228390E080E00F90DF91CF91AC
:100DB00008958091BE03E82FF0E0E154FC4F998143
:100DC00090838F5F8093BE038093E00381E090E087
:100DD000ECCF61E0CE0101960E947404F7CFCF936F
:100DE000DF931F921F92CDB7DEB720E429836A8379
:100DF000BE016F5F7F4F0E94C10581E090E00F90C0
:100E00000F90DF91CF91089590E080E00895FB016D
:100E100001900020E9F73197AF01461B570BDC0129
:100E2000ED91FC910280F381E02D19944F925F9235
:100E30006F927F928F929F92AF92BF92CF92DF92EA
:100E4000EF92FF920F931F93CF93DF93CDB7DEB74F
:100E5000A1970FB6F894DEBF0FBECDBF8C016B011A
:100E6000770FEE08FF08F7FE49C0DC01ED91FC9119
:100E70000190F081E02D6DE219955C012227332766
:100E8000A9012C193D094E095F0919A2FE01B1966D
:100E90007F019AE0492E512C612C712CCA01B901B5
:100EA000A30192010E943A15605DD7016E937D0106
:100EB000211531054105510589F790E080E0109733
:100EC00021F0BD01C8010E9407078A0D9B1DA19654
:100ED0000FB6F894DEBF0FBECDBFDF91CF911F914B
:100EE0000F91FF90EF90DF90CF90BF90AF909F90C9
:100EF0008F907F906F905F904F900895A70196011B
:100F000019A2FE01B1967F018AE0882E912CA12CB6
:100F1000B12CCA01B901A50194010E943A15605D86
:100F2000D7016E937D01211531054105510589F7E2
:100F300090E080E0109759F2BD01C8010E940707B8
:100F4000C6CFCF93DF93BC0181EE93E00E940707E9
:100F5000EC0162E672E081EE93E00E9407078C0FDD
:100F60009D1FDF91CF910895BC018BE095E00C941B
:100F70000707CF93DF93EC018091F9049091FA0475
:100F80000097E9F06881798161157105B1F04091B0
:100F9000FB045091FC042C813D814217530768F0FB
:100FA0000E948B178C819D819093FE048093FD0499
:100FB0001D821C82DF91CF9108950E940F168881B7
:100FC00099819093FA048093F9048A819B8190938C
:100FD000FC048093FB048C819D819093FE0480939C
:100FE000FD04198218821B821A82E2CFFC018081E3
:100FF0009181009711F00C940F1608950F931F9391
:10100000CF93DF93EC0188819981009759F02A8171
:101010003B812617370730F081E0DF91CF911F9198
:101020000F9108958B016F5F7F4F0E949816009774
:1010300059F0998388831B830A832C813D81232B5C
:1010400059F7FC011082E8CF80E0E7CFCF93DF9320
:10105000EC01198218821B821A821D821C8270E0A8
:1010600060E00E94FE072881398181110FC021159F
:10107000310519F0C9010E940F16198218821D82CC
:101080001C821B821A82DF91CF9108951D821C82DF
:1010900064E672E0C901DF91CF910C948B17EF9257
:1010A000FF920F931F93CF93DF93EC017B01FB0122
:1010B00001900020E9F731978F01061B170BB8014B
:1010C0000E94FE0728813981811113C02115310545
:1010D00019F0C9010E940F16198218821D821C8204
:1010E0001B821A82DF91CF911F910F91FF90EF9099
:1010F00008951D830C83B701C901DF91CF911F9122
:101100000F91FF90EF900C948B17CF93DF931F926A
:101110001F92CDB7DEB7FC011182108213821282BA
:101120001582148269831A82BE016F5F7F4F0E940D
:101130004F080F900F90DF91CF9108950F931F9359
:1011400080910502843369F50E94030660E080E027
:101150000E940B0685E692E00E94B40761E080E001
:101160000E940B0684E792E00E94B40761E089E0E8
:101170000E940B068EE792E00E94B4071092E702ED
:101180001092E60280910502833241F48091E602DA
:101190009091E702009741F1019789F11F910F911A
:1011A0000895863379F70E94030660E080E00E948C
:1011B0000B0685E692E00E94B40761E080E00E94A1
:1011C0000B0685E792E00E94B40761E088E00E9488
:1011D0000B068DE792E00E94B40781E090E09093C7
:1011E000E7028093E602CECF86E892E00E94A10754
:1011F00081E090E09093830380938203CFCF8CE9CA
:1012000092E00E94A10782E090E090938303809394
:10121000820360E080E00E940B060E94030681E0EA
:10122000809381038091840390918503A09186032C
:10123000B091870340910102509102026091030234
:10124000709104028C019D01041B150B260B370BBA
:10125000B901A80140937C0350937D0360937E0302
:1012600070937F038093520390935303A09354038E
:10127000B09355038CE390E09093770380937603CB
:1012800010927903109278031092800364E672E062
:1012900085E095E00E944F0864E672E08FEF94E0ED
:1012A0000E944F0810927B0310927A0361E080E065
:1012B0000E940B0660917803709179038BE095E0B2
:1012C0000E94160761E08EE00E940B066091760393
:1012D000709177038BE095E01F910F910C941607A6
:1012E0000E94030660E080E00E940B0681EB92E022
:1012F0000E94B40761E080E00E940B068BEB92E055
:101300000E94B40761E088E00E940B0660917803B8
:10131000709179038BE095E00E94160761E08FE001
:101320000E940B0683EC92E00E94B40785EC92E0E9
:101330000E94A10780910502882349F0109283033F
:101340001092820384E3809305020C949E08089512
:1013500085ED8093BC008091B9039091BA03A09170
:10136000BB03B091BC030796A11DB11D23E0B69548
:10137000A795979587952A95D1F72091BC0024FDD4
:1013800003C01092B70308954091B9035091BA0376
:101390006091BB037091BC03452B462B472B69F32F
:1013A0000097A105B10541F02AE22A95F1F700C0A6
:1013B0000197A109B109E1CF8091B8030C94B90458
:1013C0001F920F920FB60F9211242F933F938F937A
:1013D0009F93AF93BF938091890390918A03A091CB
:1013E0008B03B0918C033091880323E0230F2D37BA
:1013F00058F50196A11DB11D2093880380938903A0
:1014000090938A03A0938B03B0938C0380918D03F8
:1014100090918E03A0918F03B09190030196A11D2E
:10142000B11D80938D0390938E03A0938F03B0938F
:101430009003BF91AF919F918F913F912F910F900A
:101440000FBE0F901F90189526E8230F0296A11D3E
:10145000B11DD2CF1F920F920FB60F9211240BB66F
:101460000F922F933F934F935F936F937F938F933D
:101470009F93AF93BF93EF93FF9380916A039091F3
:101480006B03A0916C03B0916D03892B8A2B8B2B7E
:10149000E1F190915903E0915A03F0915B0380814F
:1014A0008927808380916A0390916B03A0916C03DC
:1014B000B0916D03181619061A061B069CF480914C
:1014C0006A0390916B03A0916C03B0916D03019737
:1014D000A109B10980936A0390936B03A0936C03F5
:1014E000B0936D03FF91EF91BF91AF919F918F9159
:1014F0007F916F915F914F913F912F910F900BBE14
:101500000F900FBE0F901F90189580910002E4E895
:10151000F1E0E4919FEF90930002E230E9F040F4B3
:10152000EE2389F0E13091F060E00E943B02DACFD7
:10153000E43049F110F1E530B9F7909173009D7FE7
:1015400090937300F1CF10926E00EECF90916F00E8
:101550009D7F90936F00E8CF909170009D7F909356
:10156000700091E09093B0009091B100987F9460EA
:101570009093B1001092B300D7CF909171009D7FEE
:1015800090937100D1CF909172009D7F90937200E3
:10159000CBCF1F920F920FB60F9211240BB60F9262
:1015A0002F933F934F935F936F937F938F939F936B
:1015B000AF93BF93EF93FF9381EE93E00E94B40348
:1015C000FF91EF91BF91AF919F918F917F916F911B
:1015D0005F914F913F912F910F900BBE0F900FBED7
:1015E0000F901F9018951F920F920FB60F92112413
:1015F0000BB60F922F938F939F93EF93FF93E091EE
:10160000F103F091F2038081E091F703F091F80388
:1016100082FD1DC090818091FA038F5F8F732091AE
:10162000FB03821741F0E091FA03F0E0EF51FC4F29
:10163000958F8093FA03FF91EF919F918F912F9156
:101640000F900BBE0F900FBE0F901F9018958081CA
:10165000F2CF1F920F920FB60F9211240BB60F927A
:101660002F933F934F935F936F937F938F939F93AA
:10167000AF93BF93EF93FF938091B900887F80363B
:1016800009F44DC008F040C0883209F4A9C028F51B
:10169000803109F49DC0C8F4882309F4FBC0883068
:1016A00009F496C0FF91EF91BF91AF919F918F91F7
:1016B0007F916F915F914F913F912F910F900BBE52
:1016C0000F900FBE0F901F901895883109F488C0B5
:1016D000803241F78093B50314C0803409F49DC073
:1016E00040F48033B9F38833E9F68093B50385EC91
:1016F000B0C0803509F485C0883509F496C08834B7
:1017000089F60E94A809CECF883909F48CC038F533
:10171000883729F050F4883611F0803719F683E0C5
:101720008093B70310924B0357C0883809F47BC0ED
:10173000803919F0803809F0B5CF80914B038032A1
:1017400008F071C0E0914B0381E08E0F80934B0352
:101750008091BB00F0E0E55DFC4F80833DC0803BA5
:1017600039F0E0F4803A09F479C0883A09F09ACF68
:1017700084E08093B70310922A0310922903E0912A
:101780004E03F0914F0319958091290381110FC0E9
:1017900081E0809329031092090309C0803C09F479
:1017A000A6CF883C09F4A3CF883B09F07BCFE0911A
:1017B0002A0381E08E0F80932A03F0E0E75FFC4F5D
:1017C00080818093BB0090912A038091290329C0D6
:1017D000809192038093BB0085EC8093BC0062CF24
:1017E0009091B4038091B303981758F5E091B40336
:1017F00081E08E0F8093B403F0E0ED56FC4F8081C2
:10180000E9CFE091B40381E08E0F8093B40380911F
:10181000BB00F0E0ED56FC4F80839091B4038091C3
:10182000B3039817C8F285E8D8CFE091B40381E0FC
:101830008E0F8093B4038091BB00F0E0ED56FC4F17
:1018400080838091B60381115CCF81E08093910306
:1018500084EA8093BC001092B70324CF85EC809378
:10186000BC001092B70380914B03803230F4E091BA
:101870004B03F0E0E55DFC4F108260914B0370E09C
:10188000E0914C03F0914D038BE293E01995109297
:101890004B0308CF1092B50334CF1092E40310929B
:1018A000E30388EE93E0A0E0B0E08093E50390933B
:1018B000E603A093E703B093E8032CE232E0309311
:1018C000E2032093E10325EC30E03093EE03209314
:1018D000ED0324EC30E03093F0032093EF0320EC91
:1018E00030E03093F2032093F10321EC30E03093A9
:1018F000F4032093F30322EC30E03093F6032093BB
:10190000F50326EC30E03093F8032093F7031092B0
:10191000FA031092FB031092FC031092FD03109245
:101920008104109280048093820490938304A09396
:101930008404B09385048EE392E090937F048093B7
:101940007E0410920E0510920D058AE592E09093A8
:101950000C0580930B051092100510921105109242
:10196000120510921305109214051092150585E0CA
:1019700095E00E9426088FEF94E00E94260889EFE8
:1019800094E00E94260810928C0410929004109209
:101990008F041092910480E592E090938B048093E1
:1019A0008A04E6EAF4E010821482138215823696E5
:1019B00084E0E23EF807B9F78AE092E09093ED0404
:1019C0008093EC0486E092E09093EF048093EE0421
:1019D00084E08093F0048093F1048EE092E0909391
:1019E000EB048093EA048AE090E09093F304809300
:1019F000F20484EF91E09093F5048093F404109244
:101A0000F8041092F7041092E6041092E704109282
:101A1000E8041092E9041092F6040895CF93DF933E
:101A2000CDB7DEB7A8970FB6F894DEBF0FBECDBF17
:101A3000789484B5826084BD84B5816084BD85B5A9
:101A4000826085BD85B5816085BD80916E008160B5
:101A500080936E001092810080918100826080935B
:101A6000810080918100816080938100809180005D
:101A70008160809380008091B10084608093B10088
:101A80008091B00081608093B0008091910082606D
:101A9000809391008091910081608093910080916A
:101AA00090008160809390008091A100826080937B
:101AB000A1008091A10081608093A1008091A0008D
:101AC00081608093A0008091210182608093210138
:101AD00080912101816080932101809120018160AA
:101AE0008093200180917A00846080937A008091B5
:101AF0007A00826080937A0080917A00816080937E
:101B00007A0080917A00806880937A001092C100F8
:101B1000E091F103F091F20312E01083E091ED0304
:101B2000F091EE031082E091EF03F091F0038FEC5F
:101B300080831092F903E091F503F091F60386E0BB
:101B40008083E091F303F091F403808180618083CE
:101B5000E091F303F091F403808188608083E09149
:101B6000F303F091F403808180688083E091F303B4
:101B7000F091F40380818F7D80838EE794E09093D1
:101B8000170580931605109251031092500310927E
:101B9000BE031092E0030E949B048DE393E09093B8
:101BA0004F0380934E038EE393E090934D03809315
:101BB0004C0380911005982F986090931005109316
:101BC000140510921505EBE3FDE03197F1F78862FB
:101BD0000E94EE058BE496E40197F1F780911005E1
:101BE00080620E94EE0583E592E00197F1F7809113
:101BF000100580620E94EE058091100580620E94AF
:101C0000EE0584E0809311058CE00E94EE050E94B1
:101C100003061093120586E00E94EE0581E0809392
:101C2000BD0310E31093DF031092BE031092E00394
:101C30000E94DA04811168C010930F0567E00E94CA
:101C400025068BE193E00197F1F765E184E00E94BE
:101C500025060E944F0680911105982F946090935D
:101C600011058C600E94EE050E944F060E9403063B
:101C700061E08AE00E94690260E080E00E940B0659
:101C80000E949E0822242A94322CA4E64A2E512C2B
:101C9000612C712C0E94CA026093840370938503A7
:101CA000809386039093870381E08093F6040E94DB
:101CB000CA020091E6041091E7042091E8043091F3
:101CC000E904AB01BC01401B510B620B730B80910B
:101CD000F2049091F304B0E0A0E084179507A60702
:101CE000B70708F02DC110E08091F0041817D0F468
:101CF000E091EC04F091ED04E10FF11D62E08081D0
:101D00000E9469021F5FF0CF82E680930F0560E0BA
:101D100080E00E9425066FEF88E00E94250660E2C1
:101D200081E095CF912C8091F104981608F063C062
:101D3000E92CF12CE091EE04F091EF04EE0DFF1D83
:101D400061E080810E946902E091EE04F091EF046D
:101D5000EE0DFF1D60E080810E943B0281E090E07B
:101D6000A0E0B0E0092C04C0880F991FAA1FBB1F78
:101D70000A94D2F75C016C01C094D094812C8091BC
:101D8000F004881608F5082D10E0E091EC04F091BD
:101D9000ED04E00FF11F80810E9412020C5F1F4FC3
:101DA000000F111FF801E657FB4F892B41F480818A
:101DB00091818A299B29918380838394E0CF8081BC
:101DC00091818C219D21F7CFE091EE04F091EF04F9
:101DD000EE0DFF1D61E080810E943B028091EE04C8
:101DE0009091EF04E80EF91E60E0F70180810E94F7
:101DF0006902939498CF7AE8E72E74E0F72E86EC88
:101E000094E08701F801278D30A1232B21F4148E53
:101E1000368E258E11A20A5F1F4F8017910791F70A
:101E2000D12C8091F004D81608F053C0C12CAD2CF1
:101E3000B12CAA0CBB1CA5014E565B4F5A01209138
:101E4000F104C21608F043C0F501608171810C2CC9
:101E500002C0769567950A94E2F7D29E900111240C
:101E60002C0D311DEAE8F4E080E0458D568D2417F5
:101E7000350709F436C48F5F36968A30B1F760FFB4
:101E800024C0EAE8F4E090E080E0448D411118C0FD
:101E9000E091EA04F091EB04E20FF31F408156E079
:101EA000589FF001599FF00D1124E657FB4F448FC6
:101EB000368F258F10A2178E61E00E94D60205C0D2
:101EC000019636968A30910501F7C394B8CFD39422
:101ED000A8CFD12CF70181A18111D82EF6E0EF0E09
:101EE000F11CE016F106B1F70E94CA026093E60405
:101EF0007093E7048093E8049093E904DD2001F1F6
:101F00008091AB048823E1F08091A9049091AA0408
:101F10000197B1F48091A60480930502811115C048
:101F200080918103882349F08091820390918303FB
:101F30008130910509F1029721F10E944304AACE54
:101F40001092F60410920502EBCF809182039091DB
:101F500083038130910541F08330910551F0892B45
:101F6000F9F60E949E08DCCF8FEC92E00E94A10758
:101F7000D7CF0E947009D4CF8FEC92E00E94A107C6
:101F8000DCCF809180038111E5C280918403909120
:101F90008503A0918603B091870340917C03509103
:101FA0007D0360917E0370917F03841B950BA60BCC
:101FB000B70B4091010250910202609103027091AF
:101FC000040284179507A607B70790F060E080E049
:101FD0000E940B0689ED92E00E94B40780917A037B
:101FE00090917B0304970CF456C081E080938003AA
:101FF0006091760370917703161617060CF066C38E
:102000008091840390918503A0918603B09187030A
:1020100000915203109153032091540330915503C2
:102020006C017D01C01AD10AE20AF30A9701860108
:10203000083E13402105310508F47FCF80935203F9
:1020400090935303A0935403B093550361507109C7
:10205000709377036093760381EE93E00E941607F6
:1020600062E672E081EE93E00E94070761E08EE095
:102070000E940B0682EE92E00E94B40761E08EE0BF
:102080000E940B0660917603709177038BE095E0D8
:102090000E94160752CF0E94CA0261157105810580
:1020A000910511F00E949914809178039091790321
:1020B000059714F50E944A141CA21BA21EA21DA281
:1020C00018A61FA229E030E040E050E00E94081569
:1020D0002AE0AE014F5F5F4F0E94AD14BE016F5FFB
:1020E0007F4FCE0183960E944F08CE0183960E94B7
:1020F000B907CE0183962CC00E944A142DE030E02F
:1021000040E050E00E940815CB016B307105A9F04A
:102110006C30710509F48FC061E48A30910571F06B
:102120001CA21BA21EA21DA218A61FA24AE0BE014D
:102130006F5F7F4F0E94A214D1CF62E4CE0101965F
:102140000E948508CE0101960E94B907CE01019632
:102150000E94F607E090F904F090FA04E114F1040B
:1021600029F10091FD041091FE0401151105F1F013
:102170008091090590910A05080F191FB80185E0A3
:1021800095E00E94FE07882389F020910505309193
:1021900006058091090590910A05B701820F931FEA
:1021A0000E948B1710930A050093090580917A030A
:1021B00090917B03019690937B0380937A0360E078
:1021C00080E00E940B064091FD045091FE04609156
:1021D000F9047091FA048BE095E00E94400380912D
:1021E00000028A3051F5E4E8F1E0149117FF7CC059
:1021F0004091090550910A05609105057091060509
:1022000081EE93E00E94400362E672E081EE93E08B
:102210000E9407078091840390918503A091860313
:10222000B091870380937C0390937D03A0937E03FA
:10223000B0937F03DDCE63E481CF8F3FC9F68AE0A0
:1022400080930002E4E8F1E01491812F1F3F81F2B6
:10225000123009F479C060F4112379F1113009F4D6
:1022600055C087FDC5CF61E08AE00E94690243C086
:10227000143009F4AAC008F489C0153091F71092FF
:102280002001109221018091210188608093210119
:1022900080912101816080932101EDEDF1E0E491D5
:1022A000F0E0EE0FFF1FE156FE4F85919491E3E2BF
:1022B000F2E0E491E093560317C014BC15BC84B55A
:1022C000826084BD85B5816085BDEDEDF1E0E4916E
:1022D000F0E0EE0FFF1FE156FE4F85919491E3E28F
:1022E000F2E0E491E0935D0361E08AE00E9469021C
:1022F000112309F488C0123009F099C08091B1000F
:10230000887F84608093B10089EF14C110928000AF
:10231000109281008091810088608093810080917B
:102320008100816080938100EDEDF1E0E491F0E0C7
:10233000EE0FFF1FE156FE4F85919491E3E2F2E02C
:10234000E491E0935C03D0CF1092B0001092B10002
:102350008091B00082608093B0008091B100816074
:102360008093B100EDEDF1E0E491F0E0EE0FFF1F9E
:10237000E156FE4F8591949190935B0380935A03AD
:10238000E3E2F2E0E491E0935903AECF10929000C3
:1023900010929100809191008860809391008091CB
:1023A0009100816080939100EDEDF1E0E491F0E027
:1023B000EE0FFF1FE156FE4F85919491E3E2F2E0AC
:1023C000E491E093580313E08FCF1092A000109295
:1023D000A1008091A10088608093A1008091A1005C
:1023E00081608093A100EDEDF1E0E491F0E0EE0F6B
:1023F000FF1FE156FE4F85919491E3E2F2E0E491F4
:10240000E093570371CF85B5887F836085BD89EFE1
:1024100087BD40927203509273036092740370926E
:10242000750380916E00826080936E00E1CE113062
:10243000D1F480918100887F8160809381008FE753
:102440009EE3909389008093880040926E0350929F
:102450006F03609270037092710380916F008260CD
:1024600080936F00C5CE1330D1F480919100887FA6
:102470008160809391008FE79EE390939900809311
:1024800098004092660350926703609268037092CE
:10249000690380917100826080937100A9CE14302D
:1024A000D1F48091A100887F81608093A1008FE7A3
:1024B0009EE39093A9008093A800409262035092FB
:1024C000630360926403709265038091720082607E
:1024D000809372008DCE1530D1F480912101887FD8
:1024E0008160809321018FE79EE39093290180937F
:1024F000280140925E0350925F03609260037092E5
:1025000061038091730082608093730071CE1230FA
:1025100081F034F4112359F0113009F490CF68CED2
:10252000143029F20CF4A7CF1530E9F261CE8FE711
:102530006FCF8FE78093B30040926A0350926B0392
:1025400060926C0370926D03809170008260809342
:1025500070004ECE80910502882309F449CD833264
:10256000E1F18A32D1F189831A8200910305109139
:1025700004050F5F1F4FB8018FEF94E00E94FE0724
:10258000882399F02091FF04309100058091030584
:1025900090910405BE016F5F7F4F820F931F0E94D1
:1025A0008B17109304050093030560E080E00E9400
:1025B0000B0689ED92E00E94B40760E080E00E9483
:1025C0000B0640910305509104056091FF04709142
:1025D00000058BE095E00E944003809105028A325D
:1025E00071F464E672E08FEF94E00E944F0860E0BF
:1025F00080E00E940B0689ED92E00E94B407809172
:102600000502833209F0F4CC60E080E00E940B0602
:1026100089ED92E00E94B4072091030530910405F2
:102620008091090590910A0528173907C1F4809116
:10263000FF049091000560910505709106050097D3
:1026400009F451C06115710539F4232B09F459C0FF
:10265000FC01808190E052C00E9482174FC02091FF
:102660007803309179032150310930937903209315
:1026700078038091010290910202A0910302B0912F
:1026800004024996A11DB11D893E43E09407A105AE
:10269000B10524F088EE93E0A0E0B0E0883C91051D
:1026A000A105B10524F488EC90E0A0E0B0E08093AF
:1026B000010290930202A0930302B093040237FF39
:1026C00064C010927903109278035FC01092810366
:1026D00083E090E090938303809382030E947009CB
:1026E0002CCC6170EACB6115710559F0232B49F0B0
:1026F000FB01808190E0919581959109892B09F0EA
:10270000AECF8091780390917903019690937903ED
:102710008093780380917603909177030596909348
:102720007703809376038091010290910202A09139
:102730000302B09104024997A109B109893EF3E06F
:102740009F07A105B10524F088EE93E0A0E0B0E07A
:10275000883C9105A105B10524F488EC90E0A0E047
:10276000B0E08093010290930202A0930302B09321
:10277000040261E08EE00E940B0660917603709186
:1027800077038BE095E00E94160761E080E00E94ED
:102790000B0660917803709179038BE095E00E94BD
:1027A00016071092800364E672E085E095E00E94CF
:1027B0004F0864E672E08FEF94E00E944F08109299
:1027C0007B0310927A03609178037091790381EE14
:1027D00093E00E94160762E672E081EE93E00E94A9
:1027E000070706CC89EF94E00E94F6078FEF94E08C
:1027F0000E94F60785E095E00C94F6078F929F9271
:10280000AF92BF92CF92DF92EF92FF92CF93DF937E
:10281000EC01688179818A819B816115710581054F
:10282000910521F464E279ED8BE597E02DE133EF3A
:1028300041E050E00E94081549015A019B01AC019A
:10284000A7EAB1E40E9427156B017C01ACEEB4EF5E
:10285000A50194010E943515C60ED71EE81EF91E6B
:10286000F7FE06C081E0C81AD108E10880E8F80A3E
:10287000C882D982EA82FB82C701B6019F77DF91C5
:10288000CF91FF90EF90DF90CF90BF90AF909F904F
:102890008F9008958F929F92AF92BF92CF92DF92C6
:1028A000EF92FF9260911E0270911F0280912002B0
:1028B00090912102611571058105910521F464E271
:1028C00079ED8BE597E02DE133EF41E050E00E9498
:1028D000081549015A019B01AC01A7EAB1E40E9425
:1028E00027156B017C01ACEEB4EFA50194010E94A9
:1028F0003515C60ED71EE81EF91EF7FE06C081E08C
:10290000C81AD108E10880E8F80AC0921E02D092E5
:102910001F02E0922002F0922102C701B6019F77C8
:10292000FF90EF90DF90CF90BF90AF909F908F90EF
:10293000089560931E0270931F028093200290936B
:1029400021020895BB274A3031F4992322F4BDE2D5
:10295000909581959F4F0C94DF14BB272A3051F43A
:10296000992342F4BDE290958095709561957F4FD3
:102970008F4F9F4F0C94BD14BB27FA01A62F6217EF
:10298000710581059105330B30FB66F0AA27660FB0
:10299000771F881F991FAA1FA21710F0A21B63950B
:1029A0003850A9F7A05DAA3308F0A95DA19336F7C6
:1029B000B111B1931082CA010C94F814BB27FB012A
:1029C0005527AA27880F991FAA1FA41710F0A41B28
:1029D00083955051B9F7A05DAA3308F0A95DA19382
:1029E000009779F7B111B1931192CB010C94F814BF
:1029F000DC01FC01672F71917723E1F7329704C066
:102A00007C916D9370836291AE17BF07C8F30895F0
:102A1000052E97FB1EF400940E941F1557FD07D04A
:102A20000E943A1507FC03D04EF40C941F155095E4
:102A30004095309521953F4F4F4F5F4F08959095AA
:102A40008095709561957F4F8F4F9F4F08950E949D
:102A50005C15A59F900DB49F900DA49F800D911DB6
:102A600011240895B7FF0C9427150E942715821B87
:102A7000930B0895A1E21A2EAA1BBB1BFD010DC0EA
:102A8000AA1FBB1FEE1FFF1FA217B307E407F5071E
:102A900020F0A21BB30BE40BF50B661F771F881FFA
:102AA000991F1A9469F760957095809590959B0190
:102AB000AC01BD01CF010895A29FB001B39FC00139
:102AC000A39F700D811D1124911DB29F700D811D5A
:102AD0001124911D0895EE0FFF1F881F8BBF0790D3
:102AE000F691E02D19940F931F93CF93DF938230CB
:102AF000910510F482E090E0E0911A05F0911B0539
:102B000030E020E0B0E0A0E0309799F421153105E5
:102B100009F44AC0281B390B24303105D8F58A81C5
:102B20009B816115710589F1FB0193838283FE010D
:102B300011C0408151810281138148175907E0F08B
:102B40004817590799F4109761F012960C93129751
:102B500013961C933296CF01DF91CF911F910F9165
:102B6000089500931A0510931B05F4CF2115310524
:102B700051F04217530738F0A901DB019A01BD015A
:102B8000DF01F801C1CFEF01F9CF90931B058093CE
:102B90001A05CDCFFE01E20FF31F819391932250CE
:102BA000310939832883D7CF209118053091190531
:102BB000232B41F4209124023091250230931905F2
:102BC000209318052091220230912302211531050E
:102BD00041F42DB73EB74091260250912702241BA5
:102BE000350BE0911805F0911905E217F307A0F4F1
:102BF0002E1B3F0B2817390778F0AC014E5F5F4F53
:102C00002417350748F04E0F5F1F50931905409366
:102C10001805819391939FCFF0E0E0E09CCFCF9394
:102C2000DF930097E9F0FC01329713821282A091A2
:102C30001A05B0911B05ED0130E020E01097A1F4DA
:102C400020813181820F931F209118053091190541
:102C50002817390709F061C0F0931905E0931805AA
:102C6000DF91CF910895EA01CE17DF07E8F54A8199
:102C70005B819E0141155105B1F7E901FB83EA83B0
:102C800049915991C40FD51FEC17FD0761F480815C
:102C900091810296840F951FE9019983888382812F
:102CA00093819B838A83F0E0E0E012968D919C9162
:102CB00013970097B9F52D913C911197CD0102968C
:102CC000820F931F20911805309119052817390795
:102CD00039F6309751F510921B0510921A05B093F2
:102CE0001905A0931805BCCFD383C28340815181BD
:102CF000840F951FC817D90761F44E5F5F4F888115
:102D00009981480F591F518340838A819B81938306
:102D100082832115310509F0B0CFF0931B05E093B4
:102D20001A059ECFFD01DC01C0CF13821282D7CFDE
:102D30004F925F926F927F928F929F92AF92BF92CB
:102D4000CF92DF92EF92FF920F931F93CF93DF9377
:102D50008C01009799F4CB01DF91CF911F910F91D6
:102D6000FF90EF90DF90CF90BF90AF909F908F90AB
:102D70007F906F905F904F900C947315FC01E60F5D
:102D8000F71F9C0122503109E217F30708F4AEC087
:102D9000D901CD91DC911197C617D70720F1C53025
:102DA000D10578F0CE0104978617970750F0C61B1F
:102DB000D70B2297C193D1936D937C93CF010E943F
:102DC0000F16C801DF91CF911F910F91FF90EF90E7
:102DD000DF90CF90BF90AF909F908F907F906F903B
:102DE0005F904F9008955B01AC1ABD0A4C018C0EA8
:102DF0009D1EA0911A05B0911B05512C412CF12C60
:102E0000E12C109731F580911805909119058815DE
:102E1000990509F05CC04616570608F058C0809125
:102E2000220290912302009741F48DB79EB7409102
:102E3000260250912702841B950BE817F90708F02A
:102E400055C0F0931905E0931805F901718360836B
:102E5000B8CF8D919C91119712966C901297139602
:102E60007C901397A815B90559F56C0142E0C40E82
:102E7000D11CCA14DB0420F1AC014A195B09DA0148
:102E80001296159780F06282738251834083D90134
:102E90006D937C93E114F10471F0D7011396FC93C8
:102EA000EE9312978ECF22968C0F9D1FF90191837E
:102EB0008083F301EFCFF0931B05E0931A0581CFD8
:102EC0004816590608F42C017D01D3019ACFCB0195
:102ED0000E9473157C01009749F0AE01B8010E9471
:102EE0007917C8010E940F1687016BCF10E000E030
:102EF00068CFFB01DC0102C001900D9241505040AF
:102F0000D8F70895FB01DC018D9101908019011023
:102F1000D9F3990B0895FB01DC0101900D9200207B
:102F2000E1F7089511E0C4E5D1E000E006C0802F8C
:102F3000FE010E946B152196011DC535D10780E069
:082F40000807A9F7F894FFCF80
:102F4800FFC80000003405040302090807063132EF
:102F5800334134353642373839432A302344010067
:102F6800000000001C05800000000000D60340039C
:102F78006D0323049E037C03900300000000C00639
:102F88009306040769068C0679066A0600000000A5
:102F9800320336033A0300000000EF06400304073B
:102FA8003F030D0A00456C204368656368756A75C0
:102FB80065676F003E43616C63756C6F003E4D65DD
:102FC8006D6F7269610043C3A16C63756C6F2053A8
:102FD800656C656363696F6E61646F004D656D6FE5
:102FE8007269612053656C656363696F6E61646FB4
:102FF80000536520616361626F210050756E746FC4
:10300800733A003E0047616D65204F766572004552
:103018006C204368656368750020202020202020EC
:0630280020202020000022
:00000001FF
