:100000000C9451010C9482010C9482010C94820195
:100010000C9482010C9482010C9482010C94820154
:100020000C9482010C9482010C9482010C94820144
:100030000C9482010C9482010C9482010C94820134
:100040000C9482010C9482010C9482010C94820124
:100050000C9482010C9482010C9482010C94D807B8
:100060000C9482010C944C080C9422080C9482018C
:100070000C9482010C9482010C9482010C948201F4
:100080000C9482010C9482010C9482010C948201E4
:100090000C9482010C9482010C9482010C948208CD
:1000A0000C9482010C9482010C9482010C948201C4
:1000B0000C9482010C9482010C9482010C948201B4
:1000C0000C9482010C9482010C9482010C948201A4
:1000D0000C9482010C9482010C9482010C94820194
:1000E0000C9482010C947C060C9407070C94350246
:1000F0000C945E020C9468020C9443020C947002FF
:100100000C9470030C945A020C9454020C94420305
:100110000C94D9030C94F2060C9408070C94260452
:100120000C943F020C9441030C9447020C94360348
:100130000C943E030C9450020C947F030C947A02AE
:100140000C946D060C9476020C944A020C948F0663
:100150000C9496060C943A030C9462020C9475026B
:100160000C94A1030C94A6090C9493030C944303E0
:100170000C943B020C946C060C94C3060C946C0219
:1001800000002100240027002A002D003000330049
:1001900001010000040107010A01000022002500FE
:1001A00028002B002E003100340002010000050160
:1001B00008010B01000020002300260029002C006C
:1001C0002F003200000100000301060109010505AE
:1001D0000505070508080808020202020A0A0808BD
:1001E00004040404010101010101010103030303EB
:1001F00003030303040707070C0C0C0C0C0C0C0C7A
:100200000202020206060606060606060B0B0B0B8A
:100210000B0B0B0B010210202008081020401020AF
:1002200040800201020108040201010204081020BA
:1002300040808040201008040201800402018040B8
:100240002010080402010804020101020408102021
:100250004080010204081020408000000A0B0209BF
:100260000C0D0E0807030401000000000000000050
:10027000000000000000000000000000000000007E
:10028000000000000000121110000000000000003B
:10029000000000000000000000000000000000005E
:1002A000A60911241FBECFEFD1E2DEBFCDBF00E013
:1002B0000CBF12E0A0E0B2E0ECEEF9E100E00BBF11
:1002C00002C007900D92AC3AB107D9F724E0ACEA2E
:1002D000B2E001C01D92A839B207E1F711E0C1E513
:1002E000D1E000E006C021970109802FFE010E94A5
:1002F000EC0CC035D10780E00807A9F70E945B0A23
:100300000C94F40C0C94000096E0899FD001112409
:10031000A45EBB4F90967C936E935F9791E091960D
:100320009C939197E0918904F0918A0490918804BC
:10033000992339F0309751F0811108C08091380429
:100340001994309719F05C968C91FACF0895CF925A
:10035000DF92EF92FF920F931F9396E0899FF00137
:100360001124E45EFB4F11A2278D30A1213031050D
:1003700051F178F02230310509F451C023303105B4
:1003800009F452C01F910F91FF90EF90DF90CF9032
:1003900008956623B9F361E070E00E9484012FB7ED
:1003A000F89480911F0390912003A0912103B091B4
:1003B00022032FBF8093740490937504A093760456
:1003C000B0937704DFCF9FB7F894C0901F03D0900D
:1003D0002003E0902103F09022039FBF009174045A
:1003E000109175042091760430917704C01AD10AD7
:1003F000E20AF30A009186041091870430E020E0BD
:100400000C151D052E053F0550F462E070E01F91AC
:100410000F91FF90EF90DF90CF900C9484016111C9
:10042000B1CF63E070E0F3CF70E060E0F0CF8150D7
:10043000823108F05AC0E82FF0E08827ED5DFD4FCB
:100440008F4F0C94EC0C4302470235023B023F02F3
:1004500075024A02500254025A025E0262026802A7
:100460006C027502700276027A02809180008F77AA
:10047000809380000895809180008F7DF9CF8091D6
:100480008000877FF5CF84B58F7784BD089584B5CC
:100490008F7DFBCF8091B0008F778093B00008955F
:1004A0008091B0008F7DF9CF809190008F778093FD
:1004B00090000895809190008F7DF9CF80919000F9
:1004C000877FF5CF8091A0008F778093A00008955B
:1004D0008091A0008F7DF9CF8091A000877FF5CF1C
:1004E000809120018F7780932001089580912001D1
:1004F0008F7DF9CF80912001877FF5CFCF93DF9358
:10050000282F30E0F901E65AFD4F8491F901EC5EA5
:10051000FD4FD491F901E253FE4FC491CC23A1F0D9
:1005200081110E941702EC2FF0E0EE0FFF1FEC5438
:10053000FE4FA591B491EC91ED2381E090E009F498
:1005400080E0DF91CF91089580E090E0FACF1F9393
:10055000CF93DF93282F30E0F901E65AFD4F8491C5
:10056000F901EC5EFD4FD491F901E253FE4FC491C5
:10057000CC23A9F0162F81110E941702EC2FF0E076
:10058000EE0FFF1FE656FE4FA591B4918FB7F8947A
:10059000EC91111108C0D095DE23DC938FBFDF9161
:1005A000CF911F910895DE2BF8CFCF93DF9390E08A
:1005B000FC01EC5EFD4F249182539E4FFC0184911F
:1005C0008823C9F090E0880F991FFC01E058FE4F86
:1005D000A591B491FC01E656FE4FC591D4916111ED
:1005E0000DC09FB7F8948C91209582238C938881BD
:1005F000282328839FBFDF91CF910895623051F463
:100600009FB7F8943C91822F809583238C93E88147
:100610002E2BEFCF8FB7F894EC912E2B2C938FBF0E
:10062000EACF3FB7F89480911B0390911C03A091EF
:100630001D03B0911E0326B5A89B05C02F3F19F0DE
:100640000196A11DB11D3FBFBA2FA92F982F882752
:10065000BC01CD01620F711D811D911D42E0660F2D
:10066000771F881F991F4A95D1F70895862F642F09
:100670000C94D502862F642F0C94A702862F0C941D
:100680007E0208950895AF92BF92CF92DF92EF92CB
:10069000FF920F931F93CF93DF936C017B018B012C
:1006A000040F151FEB015E01AE18BF08C017D1077C
:1006B00059F06991D601ED91FC910190F081E02D06
:1006C000C6011995892B79F7C501DF91CF911F914B
:1006D0000F91FF90EF90DF90CF90BF90AF90089573
:1006E000FC01538D448D252F30E0842F90E0821B38
:1006F000930B541710F0CF96089501970895FC01BD
:10070000918D828D981761F0A28DAE0FBF2FB11D14
:100710005D968C91928D9F5F9F73928F90E008956C
:100720008FEF9FEF0895FC01918D828D981731F026
:10073000828DE80FF11D858D90E008958FEF9FEF7A
:100740000895FC01918D228D892F90E0805C9F4F50
:10075000821B91098F739927089583E793E00E9484
:10076000A10321E0892B09F420E0822F0895FC01E8
:10077000A48DA80FB92FB11DA35ABF4F2C91848D02
:1007800090E001968F739927848FA689B7892C935F
:10079000A089B1898C91837080648C93938D848DB2
:1007A000981306C00288F389E02D80818F7D8083B5
:1007B0000895EF92FF920F931F93CF93DF93EC0175
:1007C00081E0888F9B8D8C8D98131AC0E889F989F8
:1007D000808185FF15C09FB7F894EE89FF896083FB
:1007E000E889F98980818370806480839FBF81E07C
:1007F00090E0DF91CF911F910F91FF90EF900895BE
:10080000F62E0B8D10E00F5F1F4F0F731127E02E98
:100810008C8D8E110CC00FB607FCFACFE889F989D0
:10082000808185FFF5CFCE010E94B703F1CFEB8D1C
:10083000EC0FFD2FF11DE35AFF4FF0829FB7F894A4
:100840000B8FEA89FB8980818062CFCFCF93DF93C2
:10085000EC01888D8823B9F0AA89BB89E889F989D8
:100860008C9185FD03C0808186FD0DC00FB607FC0D
:10087000F7CF8C9185FFF2CF808185FFEDCFCE0140
:100880000E94B703E9CFDF91CF91089580E090E017
:10089000892B29F00E94AD0381110E94000080E0A5
:1008A00090E0892B49F080E090E0892B29F00E94AC
:1008B000000081110E94000080E090E0892B49F047
:1008C00080E090E0892B29F00E94000081110E94B5
:1008D000000080E090E0892B49F080E090E0892BD7
:1008E00029F00E94000081110C94000008952091CD
:1008F000EF02260F3327331F21323105ECF420910C
:100900004903FC0190E080E0243069F082E0089522
:10091000A091EF022191AC0141535D4FA40FB52F7F
:10092000B11D2C930196861798F38091EF02680F02
:100930006093EF0280E0089581E0089510924903EA
:1009400081E0809348031092230361E084E10E94D8
:10095000A70261E085E10E94A702E9EBF0E0808157
:100960008E7F808380818D7F808388E48093B80030
:1009700085E48093BC000895CF93DF9391E090933A
:10098000CE028823B9F0C091B800D091BA0080910E
:10099000BC008A7B8093BC0060E084E10E94A702D7
:1009A00060E085E10E94A7020E949E04D093BA00F5
:1009B000C093B800DF91CF910895CF92DF92EF926C
:1009C000FF920F931F93CF93DF93D091720381E037
:1009D000D13208F09CC0C09171030E9411036B01D9
:1009E0007C018091490381116CC082E080934903AE
:1009F00081E0809348038FEF809347031092460372
:100A0000D0934503A1E5B3E0E5E2F3E080E0D8133D
:100A10008DC01092240380912403CC0FC82BC09367
:100A2000240380912303813009F084C010922303B2
:100A30000E9411036B017C01809124038093BB0011
:100A400080914B0390914C03A0914D03B0914E03C4
:100A5000892B8A2B8B2BA1F00E94110300914B0351
:100A600010914C0320914D0330914E036C197D0978
:100A70008E099F09061717072807390708F442C08F
:100A80008091BC0083FDD8CF85EC8093BC000E9490
:100A900011036B017C0180914903823009F44CC041
:100AA000809147038F3F09F469C0809147038032EA
:100AB00009F466C080914703803309F463C084E081
:100AC00026C080914B0390914C03A0914D03B091AF
:100AD0004E03892B8A2B8B2B09F483CF0E941103A1
:100AE00000914B0310914C0320914D0330914E0324
:100AF0006C197D098E099F09061717072807390702
:100B000008F06FCF80914A030E94BC0485E01092E8
:100B100050031092720310924F03DF91CF911F91F7
:100B20000F91FF90EF90DF90CF9008959D9191935A
:100B30008F5F6DCF85EEA9CF80914B0390914C03D1
:100B4000A0914D03B0914E03892B8A2B8B2B09F476
:100B5000A2CF0E94110300914B0310914C032091EE
:100B60004D0330914E036C197D098E099F090617BC
:100B700017072807390708F08ECFC4CF80E0C7CF0A
:100B800082E0C5CF83E0C3CF0F931F93CF93DF9352
:100B90008C01EB01DC011B968D919C9121E020934F
:100BA0004F032EE3209371031092500310927203AF
:100BB000DC01ED91FC910190F081E02D68811995A7
:100BC000F80183859485DC01ED91FC910190F08121
:100BD000E02D69811995DF91CF911F910F910C94B0
:100BE000DD04CF93DF931F921F92CDB7DEB790E85D
:100BF00099838A83BE016F5F7F4F8BE894E00E94E8
:100C0000C4050F900F90DF91CF91089581E00E946D
:100C1000F1058BE39FE10197F1F70895CF93DF93FF
:100C20001F921F92CDB7DEB7611110C0806890E8A7
:100C300099838A83BE016F5F7F4F8BE894E00E94A7
:100C4000C4050F900F90DF91CF910895806CEFCF86
:100C50001F93CF93DF93162FCBE8D4E0AB85BC85F1
:100C60009C8121E020934F039093710310925003D5
:100C700010927203ED91FC9111970190F081E02D9B
:100C8000682FCD0119958B859C85DC01ED91FC9138
:100C90000190F081E02D612F1995DF91CF911F9187
:100CA0000C94DD0480918F046FEF803359F486E05B
:100CB0000E9428066FEF87E00E9428066FEF88E009
:100CC0000C94280684E00E9428066FEF83E00E94BF
:100CD00028066FEF82E0F4CF0895E091170380912A
:100CE0001603E81730F4F0E0E255FD4F808190E004
:100CF00008958FEF9FEF0895909117038091160349
:100D00002FEF3FEF981748F4E92FF0E0E255FD4F41
:100D1000208130E09F5F90931703C901089580916F
:100D2000160390911703891B990B0895CF92DF92B8
:100D3000EF92FF920F931F93CF93DF937C01CB0130
:100D40008A0120914F03222389F0EB016B01C40E2D
:100D5000D51ECC15DD0569F06991D701ED91FC91A7
:100D60000190F081E02DC7011995F3CF642F0E9407
:100D70007704C801DF91CF911F910F91FF90EF9001
:100D8000DF90CF900895CF93DF931F92CDB7DEB75A
:100D9000698320914F032223F9F0209172032032BE
:100DA00058F021E030E0FC013383228390E080E0C2
:100DB0000F90DF91CF91089580915003E82FF0E0DC
:100DC000EF5AFC4F998190838F5F809350038093FB
:100DD000720381E090E0ECCF61E0CE0101960E94C9
:100DE0007704F7CFCF93DF931F921F92CDB7DEB773
:100DF00020E429836A83BE016F5F7F4F0E94C40590
:100E000081E090E00F900F90DF91CF9108950895C9
:100E100090E080E00895FB0101900020E9F7319710
:100E2000AF01461B570BDC01ED91FC910280F38171
:100E3000E02D1994CF93DF93BC0183E793E00E94E8
:100E40000B07EC0163E572E083E793E00E940B0778
:100E50008C0F9D1FDF91CF91089580910002843304
:100E600099F50E94060660E080E00E940E0666E5A5
:100E700072E08BE894E00E940B0761E080E00E9442
:100E80000E0665E672E08BE894E00E940B0761E0D5
:100E900089E00E940E066FE672E08BE894E00E9403
:100EA0000B071092AD021092AC02809100028134C7
:100EB00009F045C08091AC029091AD02009769F1B4
:100EC0000197B1F10C940606863379F70E94060665
:100ED00060E080E00E940E0666E572E08BE894E038
:100EE0000E940B0761E080E00E940E0666E672E059
:100EF0008BE894E00E940B0761E088E00E940E06F8
:100F00006EE672E08BE894E00E940B0781E090E0CF
:100F10009093AD028093AC02C8CF87E792E00E9425
:100F20001A0781E090E09093190380931803CACFC9
:100F30008DE892E00E941A0782E090E0F4CF0895D5
:100F400085ED8093BC0080914B0390914C03A09160
:100F50004D03B0914E030796A11DB11D23E0B69538
:100F6000A795979587952A95D1F72091BC0024FDE8
:100F700003C010924903089540914B0350914C03D4
:100F800060914D0370914E03452B462B472B69F31F
:100F90000097A105B10541F02AE22A95F1F700C0BA
:100FA0000197A109B109E1CF80914A030C94BC04D7
:100FB0001F920F920FB60F9211242F933F938F938E
:100FC0009F93AF93BF9380911F0390912003A091B3
:100FD0002103B091220330911A0323E0230F2D3710
:100FE00058F50196A11DB11D20931A0380931F038C
:100FF00090932003A0932103B093220380911B03BD
:1010000090911C03A0911D03B0911E030196A11D98
:10101000B11D80931B0390931C03A0931D03B093F9
:101020001E03BF91AF919F918F913F912F910F9090
:101030000FBE0F901F90189526E8230F0296A11D52
:10104000B11DD2CF1F920F920FB60F9211240BB683
:101050000F922F933F934F935F936F937F938F9351
:101060009F93AF93BF93EF93FF9383E793E00E9427
:10107000B703FF91EF91BF91AF919F918F917F91B6
:101080006F915F914F913F912F910F900BBE0F90F9
:101090000FBE0F901F9018951F920F920FB60F92D0
:1010A00011240BB60F922F938F939F93EF93FF937F
:1010B000E0918303F09184038081E0918903F091B2
:1010C0008A0382FD1DC0908180918C038F5F8F7396
:1010D00020918D03821741F0E0918C03F0E0ED58F0
:1010E000FC4F958F80938C03FF91EF919F918F918F
:1010F0002F910F900BBE0F900FBE0F901F90189561
:101100008081F2CF1F920F920FB60F9211240BB66F
:101110000F922F933F934F935F936F937F938F9390
:101120009F93AF93BF93EF93FF938091B900887F14
:10113000803609F44DC008F040C0883209F4A9C0D7
:1011400028F5803109F49DC0C8F4882309F4FBC058
:10115000883009F496C0FF91EF91BF91AF919F91B4
:101160008F917F916F915F914F913F912F910F9050
:101170000BBE0F900FBE0F901F901895883109F489
:1011800088C0803241F78093470314C0803409F44B
:101190009DC040F48033B9F38833E9F68093470368
:1011A00085ECB0C0803509F485C0883509F496C057
:1011B000883489F60E94A007CECF883909F48CC004
:1011C00038F5883729F050F4883611F0803719F651
:1011D00083E0809349031092110357C0883809F4C3
:1011E0007BC0803919F0803809F0B5CF80911103A8
:1011F000803208F071C0E091110381E08E0F80937E
:1012000011038091BB00F0E0EF50FD4F80833DC0A3
:10121000803B39F0E0F4803A09F479C0883A09F06B
:101220009ACF84E0809349031092F0021092EF026B
:10123000E0911403F091150319958091EF0281114B
:101240000FC081E08093EF021092CF0209C0803C72
:1012500009F4A6CF883C09F4A3CF883B09F07BCFE3
:10126000E091F00281E08E0F8093F002F0E0E15314
:10127000FD4F80818093BB009091F0028091EF023E
:1012800029C0809124038093BB0085EC8093BC002F
:1012900062CF9091460380914503981758F5E091ED
:1012A000460381E08E0F80934603F0E0EB5DFC4F38
:1012B0008081E9CFE091460381E08E0F8093460361
:1012C0008091BB00F0E0EB5DFC4F80839091460382
:1012D000809145039817C8F285E8D8CFE09146037E
:1012E00081E08E0F809346038091BB00F0E0EB5DC0
:1012F000FC4F80838091480381115CCF81E0809313
:10130000230384EA8093BC001092490324CF85EC28
:101310008093BC001092490380911103803230F415
:10132000E0911103F0E0EF50FD4F10826091110346
:1013300070E0E0911203F091130381EF92E01995B0
:101340001092110308CF1092470334CF1092760306
:101350001092750388EE93E0A0E0B0E080937703ED
:1013600090937803A0937903B0937A032DE132E050
:10137000309374032093730325EC30E030938003A3
:1013800020937F0324EC30E0309382032093810389
:1013900020EC30E0309384032093830321EC30E091
:1013A000309386032093850322EC30E0309388034A
:1013B0002093870326EC30E030938A03209389033F
:1013C00010928C0310928D0310928E0310928F0353
:1013D0001092130410921204809314049093150435
:1013E000A0931604B09317048FE292E09093110437
:1013F0008093100410928E0410928D048BE492E07E
:1014000090938C0480938B0410929004109291041A
:1014100010929204109293041092940410929504E6
:1014200010921E04109222041092210410922304A0
:1014300081E492E090931D0480931C04E8E3F4E0BF
:101440001082148213821582369684E0E437F807FE
:10145000B9F785E092E090937F0480937E0481E069
:1014600092E0909381048093800484E080938204CE
:101470008093830489E092E090937D0480937C04C0
:101480008AE090E0909385048093840484EF91E057
:10149000909387048093860410928A0410928904A2
:1014A000109278041092790410927A0410927B04BE
:1014B000109288040895789484B5826084BD84B5C0
:1014C000816084BD85B5826085BD85B5816085BD3F
:1014D00080916E00816080936E00109281008091F7
:1014E000810082608093810080918100816080937F
:1014F0008100809180008160809380008091B100A4
:1015000084608093B1008091B00081608093B000CE
:101510008091910082608093910080919100816020
:1015200080939100809190008160809390008091E1
:10153000A10082608093A1008091A10081608093CE
:10154000A1008091A00081608093A0008091210182
:10155000826080932101809121018160809321012B
:101560008091200181608093200180917A008460C5
:1015700080937A0080917A00826080937A008091D3
:101580007A00816080937A0080917A0080688093ED
:101590007A001092C100E0918303F0918403C2E0CD
:1015A000C083E0917F03F09180031082E09181037A
:1015B000F09182038FEC808310928B03E09187037C
:1015C000F091880386E08083E0918503F0918603A3
:1015D000808180618083E0918503F0918603808122
:1015E00088608083E0918503F09186038081806824
:1015F0008083E0918503F091860380818F7D8083D5
:1016000080E194E0909397048093960410921703DE
:101610001092160310925003109272030E949E04BF
:1016200081E493E0909315038093140382E493E0A4
:10163000909313038093120380919004982F9860E5
:1016400090939004C093940410929504EBE3FDE012
:101650003197F1F788620E94F1058BE496E40197D7
:10166000F1F78091900480620E94F10583E592E099
:101670000197F1F78091900480620E94F1058091BA
:10168000900480620E94F10584E0809391048CE0D4
:101690000E94F1050E940606C093920486E00E9413
:1016A000F10581E080934F03C0E3C0937103109272
:1016B0005003109272030E94DD04811163C0C09335
:1016C0008F0467E00E9428068BE193E00197F1F711
:1016D00065E184E00E9428060E94520680919104F0
:1016E000982F9460909391048C600E94F1050E9461
:1016F00052060E94060660E080E00E940E060E94EC
:101700002D0722242394812C912C54018394662448
:101710006A94762C56E0352E209288048FB7F89480
:1017200040911F0350912003609121037091220387
:101730008FBF8091780490917904A0917A04B09140
:101740007B04481B590B6A0B7B0B8091840490919E
:101750008504B0E0A0E084179507A607B70708F056
:101760001DC1C0E080918204C817D0F4E0917E04CE
:10177000F0917F04EC0FF11D62E080810E94D502A0
:10178000CF5FF0CF82E680938F0460E080E00E941C
:1017900028066FEF88E00E94280660E281E09ACF79
:1017A000512C80918304581608F05FC0052D10E07D
:1017B000E0918004F0918104E00FF11F61E08081ED
:1017C0000E94D502E0918004F0918104E00FF11FA6
:1017D00060E080810E94A702D501C401052C04C0ED
:1017E000880F991FAA1FBB1F0A94D2F76C017C01B6
:1017F000E094F094412C809182044816F8F4C42DB2
:10180000D0E0E0917E04F0917F04EC0FFD1F808119
:101810000E947E022496CC0FDD1FC45EDB4F892B15
:1018200041F4888199818C299D29998388834394E7
:10183000E2CF888199818E219F21F7CFE0918004AA
:10184000F0918104E00FF11F61E080810E94A70206
:101850008091800490918104080F191F60E0F801C5
:1018600080810E94D50253949CCFCCE1D4E0FE014C
:10187000878D90A1892B21F4148E768E658E11A20E
:10188000369684E0E835F80799F710E080918204F5
:10189000181708F052C000E0E12EF12CEE0CFF1CEE
:1018A000F701EC5DFB4F7F0120918304021708F0E4
:1018B00042C0F70160817181002E02C07695679564
:1018C0000A94E2F7129F90011124200F311DECE1E0
:1018D000F4E080E0458D568D2417350709F47AC071
:1018E0008F5F36968A30B1F760FF23C0ECE1F4E0F9
:1018F00090E080E0448D411117C0E0917C04F091AC
:101900007D04E20FF31F6081389EF001399EF00DD7
:101910001124E45EFB4F648F368F258F10A2178E43
:1019200061E00E94A70105C0019636968A309105B4
:1019300009F70F5FB9CF1F5FA9CF80E099A191117F
:10194000892F2696F4E0C835DF07C1F79FB7F894D2
:1019500040911F0350912003609121037091220355
:101960009FBF409378045093790460937A047093F6
:101970007B04882399F080913D04882379F080913D
:101980003B0490913C04019749F480913804809382
:101990000002811108C00E944604BECE1092880445
:1019A00010920002F8CF80911803909119038130B2
:1019B000910541F08230910551F0892B61F70E9429
:1019C0002D07E9CF82EA92E00E941A07E4CF8FE662
:1019D00092E0FACF6170A5CFEE0FFF1F881F8BBF7B
:0C19E0000790F691E02D1994F894FFCFC9
:1019EC003405040302090807063132334134353615
:1019FC0042373839432A30234400000000D90343CE
:101A0C000370032604A1037F03930300000000C3AB
:101A1C0006960608076C068F067C066D060000000D
:101A2C000036033A033E0300000000F206430308AD
:101A3C000707070D0A00456C204368656368756AE3
:101A4C007565676F003E43616C63756C6F003E4D4E
:101A5C00656D6F7269610043C3A16C63756C6F2017
:101A6C0053656C656363696F6E61646F004D656D82
:101A7C006F7269612053656C656363696F6E616435
:0C1A8C006F00456C2043686563687500BE
:00000001FF
